{
  "contractName": "Tokenlandia",
  "abi": [
    {
      "constant": true,
      "inputs": [
        {
          "name": "interfaceId",
          "type": "bytes4"
        }
      ],
      "name": "supportsInterface",
      "outputs": [
        {
          "name": "",
          "type": "bool"
        }
      ],
      "payable": false,
      "stateMutability": "view",
      "type": "function"
    },
    {
      "constant": true,
      "inputs": [],
      "name": "name",
      "outputs": [
        {
          "name": "",
          "type": "string"
        }
      ],
      "payable": false,
      "stateMutability": "view",
      "type": "function"
    },
    {
      "constant": true,
      "inputs": [
        {
          "name": "tokenId",
          "type": "uint256"
        }
      ],
      "name": "getApproved",
      "outputs": [
        {
          "name": "",
          "type": "address"
        }
      ],
      "payable": false,
      "stateMutability": "view",
      "type": "function"
    },
    {
      "constant": false,
      "inputs": [
        {
          "name": "to",
          "type": "address"
        },
        {
          "name": "tokenId",
          "type": "uint256"
        }
      ],
      "name": "approve",
      "outputs": [],
      "payable": false,
      "stateMutability": "nonpayable",
      "type": "function"
    },
    {
      "constant": false,
      "inputs": [
        {
          "name": "account",
          "type": "address"
        }
      ],
      "name": "addWhitelisted",
      "outputs": [],
      "payable": false,
      "stateMutability": "nonpayable",
      "type": "function"
    },
    {
      "constant": true,
      "inputs": [],
      "name": "totalSupply",
      "outputs": [
        {
          "name": "",
          "type": "uint256"
        }
      ],
      "payable": false,
      "stateMutability": "view",
      "type": "function"
    },
    {
      "constant": false,
      "inputs": [
        {
          "name": "from",
          "type": "address"
        },
        {
          "name": "to",
          "type": "address"
        },
        {
          "name": "tokenId",
          "type": "uint256"
        }
      ],
      "name": "transferFrom",
      "outputs": [],
      "payable": false,
      "stateMutability": "nonpayable",
      "type": "function"
    },
    {
      "constant": false,
      "inputs": [
        {
          "name": "account",
          "type": "address"
        }
      ],
      "name": "removeWhitelisted",
      "outputs": [],
      "payable": false,
      "stateMutability": "nonpayable",
      "type": "function"
    },
    {
      "constant": true,
      "inputs": [
        {
          "name": "owner",
          "type": "address"
        },
        {
          "name": "index",
          "type": "uint256"
        }
      ],
      "name": "tokenOfOwnerByIndex",
      "outputs": [
        {
          "name": "",
          "type": "uint256"
        }
      ],
      "payable": false,
      "stateMutability": "view",
      "type": "function"
    },
    {
      "constant": true,
      "inputs": [
        {
          "name": "account",
          "type": "address"
        }
      ],
      "name": "isWhitelisted",
      "outputs": [
        {
          "name": "",
          "type": "bool"
        }
      ],
      "payable": false,
      "stateMutability": "view",
      "type": "function"
    },
    {
      "constant": false,
      "inputs": [
        {
          "name": "from",
          "type": "address"
        },
        {
          "name": "to",
          "type": "address"
        },
        {
          "name": "tokenId",
          "type": "uint256"
        }
      ],
      "name": "safeTransferFrom",
      "outputs": [],
      "payable": false,
      "stateMutability": "nonpayable",
      "type": "function"
    },
    {
      "constant": false,
      "inputs": [],
      "name": "renounceWhitelistAdmin",
      "outputs": [],
      "payable": false,
      "stateMutability": "nonpayable",
      "type": "function"
    },
    {
      "constant": true,
      "inputs": [],
      "name": "tokenBaseURI",
      "outputs": [
        {
          "name": "",
          "type": "string"
        }
      ],
      "payable": false,
      "stateMutability": "view",
      "type": "function"
    },
    {
      "constant": true,
      "inputs": [
        {
          "name": "index",
          "type": "uint256"
        }
      ],
      "name": "tokenByIndex",
      "outputs": [
        {
          "name": "",
          "type": "uint256"
        }
      ],
      "payable": false,
      "stateMutability": "view",
      "type": "function"
    },
    {
      "constant": true,
      "inputs": [
        {
          "name": "tokenId",
          "type": "uint256"
        }
      ],
      "name": "ownerOf",
      "outputs": [
        {
          "name": "",
          "type": "address"
        }
      ],
      "payable": false,
      "stateMutability": "view",
      "type": "function"
    },
    {
      "constant": true,
      "inputs": [
        {
          "name": "owner",
          "type": "address"
        }
      ],
      "name": "balanceOf",
      "outputs": [
        {
          "name": "",
          "type": "uint256"
        }
      ],
      "payable": false,
      "stateMutability": "view",
      "type": "function"
    },
    {
      "constant": false,
      "inputs": [
        {
          "name": "account",
          "type": "address"
        }
      ],
      "name": "addWhitelistAdmin",
      "outputs": [],
      "payable": false,
      "stateMutability": "nonpayable",
      "type": "function"
    },
    {
      "constant": true,
      "inputs": [],
      "name": "symbol",
      "outputs": [
        {
          "name": "",
          "type": "string"
        }
      ],
      "payable": false,
      "stateMutability": "view",
      "type": "function"
    },
    {
      "constant": false,
      "inputs": [
        {
          "name": "to",
          "type": "address"
        },
        {
          "name": "approved",
          "type": "bool"
        }
      ],
      "name": "setApprovalForAll",
      "outputs": [],
      "payable": false,
      "stateMutability": "nonpayable",
      "type": "function"
    },
    {
      "constant": false,
      "inputs": [
        {
          "name": "from",
          "type": "address"
        },
        {
          "name": "to",
          "type": "address"
        },
        {
          "name": "tokenId",
          "type": "uint256"
        },
        {
          "name": "_data",
          "type": "bytes"
        }
      ],
      "name": "safeTransferFrom",
      "outputs": [],
      "payable": false,
      "stateMutability": "nonpayable",
      "type": "function"
    },
    {
      "constant": true,
      "inputs": [
        {
          "name": "account",
          "type": "address"
        }
      ],
      "name": "isWhitelistAdmin",
      "outputs": [
        {
          "name": "",
          "type": "bool"
        }
      ],
      "payable": false,
      "stateMutability": "view",
      "type": "function"
    },
    {
      "constant": false,
      "inputs": [],
      "name": "renounceWhitelisted",
      "outputs": [],
      "payable": false,
      "stateMutability": "nonpayable",
      "type": "function"
    },
    {
      "constant": true,
      "inputs": [
        {
          "name": "owner",
          "type": "address"
        },
        {
          "name": "operator",
          "type": "address"
        }
      ],
      "name": "isApprovedForAll",
      "outputs": [
        {
          "name": "",
          "type": "bool"
        }
      ],
      "payable": false,
      "stateMutability": "view",
      "type": "function"
    },
    {
      "inputs": [
        {
          "name": "_tokenBaseURI",
          "type": "string"
        }
      ],
      "payable": false,
      "stateMutability": "nonpayable",
      "type": "constructor"
    },
    {
      "anonymous": false,
      "inputs": [
        {
          "indexed": true,
          "name": "account",
          "type": "address"
        }
      ],
      "name": "WhitelistedAdded",
      "type": "event"
    },
    {
      "anonymous": false,
      "inputs": [
        {
          "indexed": true,
          "name": "account",
          "type": "address"
        }
      ],
      "name": "WhitelistedRemoved",
      "type": "event"
    },
    {
      "anonymous": false,
      "inputs": [
        {
          "indexed": true,
          "name": "account",
          "type": "address"
        }
      ],
      "name": "WhitelistAdminAdded",
      "type": "event"
    },
    {
      "anonymous": false,
      "inputs": [
        {
          "indexed": true,
          "name": "account",
          "type": "address"
        }
      ],
      "name": "WhitelistAdminRemoved",
      "type": "event"
    },
    {
      "anonymous": false,
      "inputs": [
        {
          "indexed": true,
          "name": "from",
          "type": "address"
        },
        {
          "indexed": true,
          "name": "to",
          "type": "address"
        },
        {
          "indexed": true,
          "name": "tokenId",
          "type": "uint256"
        }
      ],
      "name": "Transfer",
      "type": "event"
    },
    {
      "anonymous": false,
      "inputs": [
        {
          "indexed": true,
          "name": "owner",
          "type": "address"
        },
        {
          "indexed": true,
          "name": "approved",
          "type": "address"
        },
        {
          "indexed": true,
          "name": "tokenId",
          "type": "uint256"
        }
      ],
      "name": "Approval",
      "type": "event"
    },
    {
      "anonymous": false,
      "inputs": [
        {
          "indexed": true,
          "name": "owner",
          "type": "address"
        },
        {
          "indexed": true,
          "name": "operator",
          "type": "address"
        },
        {
          "indexed": false,
          "name": "approved",
          "type": "bool"
        }
      ],
      "name": "ApprovalForAll",
      "type": "event"
    },
    {
      "constant": false,
      "inputs": [
        {
          "name": "_tokenId",
          "type": "uint256"
        },
        {
          "name": "_recipient",
          "type": "address"
        },
        {
          "name": "_productCode",
          "type": "string"
        },
        {
          "name": "_ipfsHash",
          "type": "string"
        }
      ],
      "name": "mintToken",
      "outputs": [
        {
          "name": "success",
          "type": "bool"
        }
      ],
      "payable": false,
      "stateMutability": "nonpayable",
      "type": "function"
    },
    {
      "constant": true,
      "inputs": [
        {
          "name": "_tokenId",
          "type": "uint256"
        }
      ],
      "name": "attributes",
      "outputs": [
        {
          "name": "_productCode",
          "type": "string"
        },
        {
          "name": "_productId",
          "type": "string"
        },
        {
          "name": "_ipfsUrl",
          "type": "string"
        }
      ],
      "payable": false,
      "stateMutability": "view",
      "type": "function"
    },
    {
      "constant": true,
      "inputs": [
        {
          "name": "_tokenId",
          "type": "uint256"
        }
      ],
      "name": "productCode",
      "outputs": [
        {
          "name": "_productCode",
          "type": "string"
        }
      ],
      "payable": false,
      "stateMutability": "view",
      "type": "function"
    },
    {
      "constant": true,
      "inputs": [
        {
          "name": "_tokenId",
          "type": "uint256"
        }
      ],
      "name": "productId",
      "outputs": [
        {
          "name": "_productId",
          "type": "string"
        }
      ],
      "payable": false,
      "stateMutability": "view",
      "type": "function"
    },
    {
      "constant": true,
      "inputs": [
        {
          "name": "_productId",
          "type": "string"
        }
      ],
      "name": "tokenIdForProductId",
      "outputs": [
        {
          "name": "_tokenId",
          "type": "uint256"
        }
      ],
      "payable": false,
      "stateMutability": "view",
      "type": "function"
    },
    {
      "constant": true,
      "inputs": [
        {
          "name": "_tokenId",
          "type": "uint256"
        }
      ],
      "name": "tokenURI",
      "outputs": [
        {
          "name": "",
          "type": "string"
        }
      ],
      "payable": false,
      "stateMutability": "view",
      "type": "function"
    },
    {
      "constant": true,
      "inputs": [
        {
          "name": "owner",
          "type": "address"
        }
      ],
      "name": "tokensOfOwner",
      "outputs": [
        {
          "name": "",
          "type": "uint256[]"
        }
      ],
      "payable": false,
      "stateMutability": "view",
      "type": "function"
    },
    {
      "constant": false,
      "inputs": [
        {
          "name": "_tokenId",
          "type": "uint256"
        },
        {
          "name": "_productCode",
          "type": "string"
        }
      ],
      "name": "updateProductCode",
      "outputs": [],
      "payable": false,
      "stateMutability": "nonpayable",
      "type": "function"
    },
    {
      "constant": false,
      "inputs": [
        {
          "name": "tokenId",
          "type": "uint256"
        }
      ],
      "name": "burn",
      "outputs": [],
      "payable": false,
      "stateMutability": "nonpayable",
      "type": "function"
    },
    {
      "constant": false,
      "inputs": [
        {
          "name": "_tokenId",
          "type": "uint256"
        },
        {
          "name": "_newIpfsHash",
          "type": "string"
        }
      ],
      "name": "updateIpfsHash",
      "outputs": [],
      "payable": false,
      "stateMutability": "nonpayable",
      "type": "function"
    },
    {
      "constant": false,
      "inputs": [
        {
          "name": "_newBaseURI",
          "type": "string"
        }
      ],
      "name": "updateTokenBaseURI",
      "outputs": [],
      "payable": false,
      "stateMutability": "nonpayable",
      "type": "function"
    }
  ],
  "bytecode": "0x60a06040819052600060808190526200001b91600d9162000617565b503480156200002957600080fd5b5060405162003caf38038062003caf833981018060405260208110156200004f57600080fd5b8101908080516401000000008111156200006857600080fd5b820160208101848111156200007c57600080fd5b81516401000000008111828201871017156200009757600080fd5b5050604080518082018252600f81527f546f6b656e4c616e646961204e465400000000000000000000000000000000006020808301919091528251808401909352600383527f544c4e000000000000000000000000000000000000000000000000000000000090830152919450909250905081816200013f7f01ffc9a7000000000000000000000000000000000000000000000000000000006401000000006200025b810204565b620001737f80ac58cd000000000000000000000000000000000000000000000000000000006401000000006200025b810204565b620001a77f780e9d63000000000000000000000000000000000000000000000000000000006401000000006200025b810204565b8151620001bc90600990602085019062000617565b508051620001d290600a90602084019062000617565b50620002077f5b5e139f000000000000000000000000000000000000000000000000000000006401000000006200025b810204565b5050505062000225336200032a640100000000026401000000009004565b6200023e3364010000000062000fa66200037c82021704565b80516200025390600d90602084019062000617565b5050620006bc565b7fffffffff000000000000000000000000000000000000000000000000000000008082161415620002ed57604080517f08c379a000000000000000000000000000000000000000000000000000000000815260206004820152601c60248201527f4552433136353a20696e76616c696420696e7465726661636520696400000000604482015290519081900360640190fd5b7fffffffff00000000000000000000000000000000000000000000000000000000166000908152602081905260409020805460ff19166001179055565b62000345600b8264010000000062002bc06200043b82021704565b604051600160a060020a038216907f22380c05984257a1cb900161c713dd71d39e74820f1aea43bd3f1bdd2096129990600090a250565b6200039033640100000000620004e2810204565b15156200042457604080517f08c379a000000000000000000000000000000000000000000000000000000000815260206004820152602481018290527f57686974656c69737441646d696e526f6c653a2063616c6c657220646f65732060448201527f6e6f742068617665207468652057686974656c69737441646d696e20726f6c65606482015290519081900360840190fd5b620004388164010000000062000505810204565b50565b62000450828264010000000062000557810204565b15620004bd57604080517f08c379a000000000000000000000000000000000000000000000000000000000815260206004820152601f60248201527f526f6c65733a206163636f756e7420616c72656164792068617320726f6c6500604482015290519081900360640190fd5b600160a060020a0316600090815260209190915260409020805460ff19166001179055565b6000620004ff600b836401000000006200267e6200055782021704565b92915050565b62000520600c8264010000000062002bc06200043b82021704565b604051600160a060020a038216907fee1504a83b6d4a361f4c1dc78ab59bfa30d6a3b6612c403e86bb01ef2984295f90600090a250565b6000600160a060020a0382161515620005f757604080517f08c379a000000000000000000000000000000000000000000000000000000000815260206004820152602260248201527f526f6c65733a206163636f756e7420697320746865207a65726f20616464726560448201527f7373000000000000000000000000000000000000000000000000000000000000606482015290519081900360840190fd5b50600160a060020a03166000908152602091909152604090205460ff1690565b828054600181600116156101000203166002900490600052602060002090601f016020900481019282601f106200065a57805160ff19168380011785556200068a565b828001600101855582156200068a579182015b828111156200068a5782518255916020019190600101906200066d565b50620006989291506200069c565b5090565b620006b991905b80821115620006985760008155600101620006a3565b90565b6135e380620006cc6000396000f3fe6080604052600436106101ab5763ffffffff7c010000000000000000000000000000000000000000000000000000000060003504166301ffc9a781146101b057806306fdde031461020d578063081812fc14610297578063095ea7b3146102dd57806310154bad1461031857806318160ddd1461034b5780632295ee5b1461037257806323b872dd146103ef578063291d9549146104325780632f745c59146104655780633af32abf1461049e57806342842e0e146104d157806342966c68146105145780634c5a628c1461053e5780634e99b800146105535780634f6ccce7146105685780636289fa61146105925780636352211e1461067657806370a08231146106a05780637362d9c8146106d35780638462151c146107065780638b174b1b146107895780638ed2be82146107b357806395d89b41146107dd5780639611c051146107f2578063a22cb46514610876578063b88d4fde146108b1578063bb5f747b14610984578063c87b56dd146109b7578063d05dcc6a146109e1578063d6cd947314610b4f578063e985e9c514610b64578063ead25d1514610b9f578063f1e95a3514610c1c575b600080fd5b3480156101bc57600080fd5b506101f9600480360360208110156101d357600080fd5b50357bffffffffffffffffffffffffffffffffffffffffffffffffffffffff1916610ca0565b604080519115158252519081900360200190f35b34801561021957600080fd5b50610222610cd4565b6040805160208082528351818301528351919283929083019185019080838360005b8381101561025c578181015183820152602001610244565b50505050905090810190601f1680156102895780820380516001836020036101000a031916815260200191505b509250505060405180910390f35b3480156102a357600080fd5b506102c1600480360360208110156102ba57600080fd5b5035610d6b565b60408051600160a060020a039092168252519081900360200190f35b3480156102e957600080fd5b506103166004803603604081101561030057600080fd5b50600160a060020a038135169060200135610e0e565b005b34801561032457600080fd5b506103166004803603602081101561033b57600080fd5b5035600160a060020a0316610fa6565b34801561035757600080fd5b50610360611037565b60408051918252519081900360200190f35b34801561037e57600080fd5b506103166004803603602081101561039557600080fd5b8101906020810181356401000000008111156103b057600080fd5b8201836020820111156103c257600080fd5b803590602001918460018302840111640100000000831117156103e457600080fd5b50909250905061103d565b3480156103fb57600080fd5b506103166004803603606081101561041257600080fd5b50600160a060020a03813581169160208101359091169060400135611106565b34801561043e57600080fd5b506103166004803603602081101561045557600080fd5b5035600160a060020a0316611197565b34801561047157600080fd5b506103606004803603604081101561048857600080fd5b50600160a060020a038135169060200135611225565b3480156104aa57600080fd5b506101f9600480360360208110156104c157600080fd5b5035600160a060020a03166112e3565b3480156104dd57600080fd5b50610316600480360360608110156104f457600080fd5b50600160a060020a038135811691602081013590911690604001356112fc565b34801561052057600080fd5b506103166004803603602081101561053757600080fd5b5035611318565b34801561054a57600080fd5b506103166113e2565b34801561055f57600080fd5b506102226113ed565b34801561057457600080fd5b506103606004803603602081101561058b57600080fd5b503561147b565b34801561059e57600080fd5b506101f9600480360360808110156105b557600080fd5b813591600160a060020a03602082013516918101906060810160408201356401000000008111156105e557600080fd5b8201836020820111156105f757600080fd5b8035906020019184600183028401116401000000008311171561061957600080fd5b91939092909160208101903564010000000081111561063757600080fd5b82018360208201111561064957600080fd5b8035906020019184600183028401116401000000008311171561066b57600080fd5b509092509050611521565b34801561068257600080fd5b506102c16004803603602081101561069957600080fd5b50356117d6565b3480156106ac57600080fd5b50610360600480360360208110156106c357600080fd5b5035600160a060020a031661186b565b3480156106df57600080fd5b50610316600480360360208110156106f657600080fd5b5035600160a060020a0316611914565b34801561071257600080fd5b506107396004803603602081101561072957600080fd5b5035600160a060020a03166119a2565b60408051602080825283518183015283519192839290830191858101910280838360005b8381101561077557818101518382015260200161075d565b505050509050019250505060405180910390f35b34801561079557600080fd5b50610222600480360360208110156107ac57600080fd5b5035611a03565b3480156107bf57600080fd5b50610222600480360360208110156107d657600080fd5b5035611b35565b3480156107e957600080fd5b50610222611c2a565b3480156107fe57600080fd5b506103166004803603604081101561081557600080fd5b8135919081019060408101602082013564010000000081111561083757600080fd5b82018360208201111561084957600080fd5b8035906020019184600183028401116401000000008311171561086b57600080fd5b509092509050611c8b565b34801561088257600080fd5b506103166004803603604081101561089957600080fd5b50600160a060020a0381351690602001351515611db4565b3480156108bd57600080fd5b50610316600480360360808110156108d457600080fd5b600160a060020a0382358116926020810135909116916040820135919081019060808101606082013564010000000081111561090f57600080fd5b82018360208201111561092157600080fd5b8035906020019184600183028401116401000000008311171561094357600080fd5b91908080601f016020809104026020016040519081016040528093929190818152602001838380828437600092019190915250929550611e83945050505050565b34801561099057600080fd5b506101f9600480360360208110156109a757600080fd5b5035600160a060020a0316611f1c565b3480156109c357600080fd5b50610222600480360360208110156109da57600080fd5b5035611f2f565b3480156109ed57600080fd5b50610a0b60048036036020811015610a0457600080fd5b50356120d4565b60405180806020018060200180602001848103845287818151815260200191508051906020019080838360005b83811015610a50578181015183820152602001610a38565b50505050905090810190601f168015610a7d5780820380516001836020036101000a031916815260200191505b50848103835286518152865160209182019188019080838360005b83811015610ab0578181015183820152602001610a98565b50505050905090810190601f168015610add5780820380516001836020036101000a031916815260200191505b50848103825285518152855160209182019187019080838360005b83811015610b10578181015183820152602001610af8565b50505050905090810190601f168015610b3d5780820380516001836020036101000a031916815260200191505b50965050505050505060405180910390f35b348015610b5b57600080fd5b506103166122cb565b348015610b7057600080fd5b506101f960048036036040811015610b8757600080fd5b50600160a060020a03813581169160200135166122d4565b348015610bab57600080fd5b5061036060048036036020811015610bc257600080fd5b810190602081018135640100000000811115610bdd57600080fd5b820183602082011115610bef57600080fd5b80359060200191846001830284011164010000000083111715610c1157600080fd5b509092509050612302565b348015610c2857600080fd5b5061031660048036036040811015610c3f57600080fd5b81359190810190604081016020820135640100000000811115610c6157600080fd5b820183602082011115610c7357600080fd5b80359060200191846001830284011164010000000083111715610c9557600080fd5b509092509050612333565b7bffffffffffffffffffffffffffffffffffffffffffffffffffffffff191660009081526020819052604090205460ff1690565b60098054604080516020601f6002600019610100600188161502019095169490940493840181900481028201810190925282815260609390929091830182828015610d605780601f10610d3557610100808354040283529160200191610d60565b820191906000526020600020905b815481529060010190602001808311610d4357829003601f168201915b505050505090505b90565b6000610d76826124d5565b1515610df2576040805160e560020a62461bcd02815260206004820152602c60248201527f4552433732313a20617070726f76656420717565727920666f72206e6f6e657860448201527f697374656e7420746f6b656e0000000000000000000000000000000000000000606482015290519081900360840190fd5b50600090815260026020526040902054600160a060020a031690565b6000610e19826117d6565b9050600160a060020a038381169082161415610ea5576040805160e560020a62461bcd02815260206004820152602160248201527f4552433732313a20617070726f76616c20746f2063757272656e74206f776e6560448201527f7200000000000000000000000000000000000000000000000000000000000000606482015290519081900360840190fd5b33600160a060020a0382161480610ec15750610ec181336122d4565b1515610f3d576040805160e560020a62461bcd02815260206004820152603860248201527f4552433732313a20617070726f76652063616c6c6572206973206e6f74206f7760448201527f6e6572206e6f7220617070726f76656420666f7220616c6c0000000000000000606482015290519081900360840190fd5b600082815260026020526040808220805473ffffffffffffffffffffffffffffffffffffffff1916600160a060020a0387811691821790925591518593918516917f8c5be1e5ebec7d5bd14f71427d1e84f3dd0314c0f7b2291e5b200ac8c7c3b92591a4505050565b610faf33611f1c565b151561102b576040805160e560020a62461bcd02815260206004820152602481018290527f57686974656c69737441646d696e526f6c653a2063616c6c657220646f65732060448201527f6e6f742068617665207468652057686974656c69737441646d696e20726f6c65606482015290519081900360840190fd5b611034816124f2565b50565b60075490565b611046336112e3565b151561109e576040805160e560020a62461bcd02815260206004820152603a60248201526000805160206135788339815191526044820152600080516020613598833981519152606482015290519081900360840190fd5b8015156110f5576040805160e560020a62461bcd02815260206004820152601060248201527f426173652055524920696e76616c696400000000000000000000000000000000604482015290519081900360640190fd5b611101600d8383613431565b505050565b611110338261253a565b151561118c576040805160e560020a62461bcd02815260206004820152603160248201527f4552433732313a207472616e736665722063616c6c6572206973206e6f74206f60448201527f776e6572206e6f7220617070726f766564000000000000000000000000000000606482015290519081900360840190fd5b611101838383612617565b6111a033611f1c565b151561121c576040805160e560020a62461bcd02815260206004820152602481018290527f57686974656c69737441646d696e526f6c653a2063616c6c657220646f65732060448201527f6e6f742068617665207468652057686974656c69737441646d696e20726f6c65606482015290519081900360840190fd5b61103481612636565b60006112308361186b565b82106112ac576040805160e560020a62461bcd02815260206004820152602b60248201527f455243373231456e756d657261626c653a206f776e657220696e646578206f7560448201527f74206f6620626f756e6473000000000000000000000000000000000000000000606482015290519081900360840190fd5b600160a060020a03831660009081526005602052604090208054839081106112d057fe5b9060005260206000200154905092915050565b60006112f6600c8363ffffffff61267e16565b92915050565b6111018383836020604051908101604052806000815250611e83565b611321336112e3565b1515611379576040805160e560020a62461bcd02815260206004820152603a60248201526000805160206135788339815191526044820152600080516020613598833981519152606482015290519081900360840190fd5b611383338261253a565b15156113d9576040805160e560020a62461bcd02815260206004820181905260248201527f43616c6c6572206973206e6f74206f776e6572206e6f7220617070726f766564604482015290519081900360640190fd5b61103481612726565b6113eb33612738565b565b600d805460408051602060026001851615610100026000190190941693909304601f810184900484028201840190925281815292918301828280156114735780601f1061144857610100808354040283529160200191611473565b820191906000526020600020905b81548152906001019060200180831161145657829003601f168201915b505050505081565b6000611485611037565b8210611501576040805160e560020a62461bcd02815260206004820152602c60248201527f455243373231456e756d657261626c653a20676c6f62616c20696e646578206f60448201527f7574206f6620626f756e64730000000000000000000000000000000000000000606482015290519081900360840190fd5b600780548390811061150f57fe5b90600052602060002001549050919050565b600061152c336112e3565b1515611584576040805160e560020a62461bcd02815260206004820152603a60248201526000805160206135788339815191526044820152600080516020613598833981519152606482015290519081900360840190fd5b600084116115dc576040805160e560020a62461bcd02815260206004820152601460248201527f50726f6475637420636f646520696e76616c6964000000000000000000000000604482015290519081900360640190fd5b60008211611634576040805160e560020a62461bcd02815260206004820152601160248201527f49504653206861736820696e76616c6964000000000000000000000000000000604482015290519081900360640190fd5b6040805160606020601f88018190040282018101835291810186815290918291908890889081908501838280828437600092019190915250505090825250604080516020601f8701819004810282018101909252858152918101919086908690819084018382808284376000920182905250939094525050898152600e60209081526040909120835180519193506116d09284929101906134af565b5060208281015180516116e992600185019201906134af565b509050506116f78688612780565b86600f61176960408051908101604052806001815260200160f860020a602d028152506117238b6127a1565b89898080601f01602080910402602001604051908101604052809392919081815260200183838082843760009201919091525092949392505063ffffffff612844169050565b6040518082805190602001908083835b602083106117985780518252601f199092019160209182019101611779565b51815160209384036101000a600019018019909216911617905292019485525060405193849003019092209290925550600198975050505050505050565b600081815260016020526040812054600160a060020a03168015156112f6576040805160e560020a62461bcd02815260206004820152602960248201527f4552433732313a206f776e657220717565727920666f72206e6f6e657869737460448201527f656e7420746f6b656e0000000000000000000000000000000000000000000000606482015290519081900360840190fd5b6000600160a060020a03821615156118f3576040805160e560020a62461bcd02815260206004820152602a60248201527f4552433732313a2062616c616e636520717565727920666f7220746865207a6560448201527f726f206164647265737300000000000000000000000000000000000000000000606482015290519081900360840190fd5b600160a060020a03821660009081526003602052604090206112f6906129c1565b61191d33611f1c565b1515611999576040805160e560020a62461bcd02815260206004820152602481018290527f57686974656c69737441646d696e526f6c653a2063616c6c657220646f65732060448201527f6e6f742068617665207468652057686974656c69737441646d696e20726f6c65606482015290519081900360840190fd5b611034816129c5565b60606119ad82612a0d565b8054806020026020016040519081016040528092919081815260200182805480156119f757602002820191906000526020600020905b8154815260200190600101908083116119e3575b50505050509050919050565b606081611a0f816124d5565b1515611a53576040805160e560020a62461bcd0281526020600482015260166024820152600080516020613558833981519152604482015290519081900360640190fd5b6000600e60008581526020019081526020016000209050611b2d60408051908101604052806001815260200160f860020a602d02815250611a93866127a1565b8354604080516020601f60026000196101006001881615020190951694909404938401819004810282018101909252828152918691830182828015611b195780601f10611aee57610100808354040283529160200191611b19565b820191906000526020600020905b815481529060010190602001808311611afc57829003601f168201915b50505050506128449092919063ffffffff16565b949350505050565b606081611b41816124d5565b1515611b85576040805160e560020a62461bcd0281526020600482015260166024820152600080516020613558833981519152604482015290519081900360640190fd5b6000838152600e602090815260409182902080548351601f60026000196101006001861615020190931692909204918201849004840281018401909452808452909291839190830182828015611c1c5780601f10611bf157610100808354040283529160200191611c1c565b820191906000526020600020905b815481529060010190602001808311611bff57829003601f168201915b505050505092505050919050565b600a8054604080516020601f6002600019610100600188161502019095169490940493840181900481028201810190925282815260609390929091830182828015610d605780601f10610d3557610100808354040283529160200191610d60565b611c94336112e3565b1515611cec576040805160e560020a62461bcd02815260206004820152603a60248201526000805160206135788339815191526044820152600080516020613598833981519152606482015290519081900360840190fd5b82611cf6816124d5565b1515611d3a576040805160e560020a62461bcd0281526020600482015260166024820152600080516020613558833981519152604482015290519081900360640190fd5b811515611d91576040805160e560020a62461bcd02815260206004820152601560248201527f4e65772049504653206861736820696e76616c69640000000000000000000000604482015290519081900360640190fd5b6000848152600e60205260409020611dad906001018484613431565b5050505050565b600160a060020a038216331415611e15576040805160e560020a62461bcd02815260206004820152601960248201527f4552433732313a20617070726f766520746f2063616c6c657200000000000000604482015290519081900360640190fd5b336000818152600460209081526040808320600160a060020a03871680855290835292819020805460ff1916861515908117909155815190815290519293927f17307eab39ab6107e8899845ad3d59bd9653f200f220920489ca2b5937696c31929181900390910190a35050565b611e8e848484611106565b611e9a84848484612a27565b1515611f16576040805160e560020a62461bcd02815260206004820152603260248201527f4552433732313a207472616e7366657220746f206e6f6e20455243373231526560448201527f63656976657220696d706c656d656e7465720000000000000000000000000000606482015290519081900360840190fd5b50505050565b60006112f6600b8363ffffffff61267e16565b606081611f3b816124d5565b1515611f7f576040805160e560020a62461bcd0281526020600482015260166024820152600080516020613558833981519152604482015290519081900360640190fd5b6120cd600e60008581526020019081526020016000206001018054600181600116156101000203166002900480601f01602080910402602001604051908101604052809291908181526020018280546001816001161561010002031660029004801561202c5780601f106120015761010080835404028352916020019161202c565b820191906000526020600020905b81548152906001019060200180831161200f57829003601f168201915b5050600d8054604080516020601f60026000196101006001881615020190951694909404938401819004810282018101909252828152955091935091508301828280156120ba5780601f1061208f576101008083540402835291602001916120ba565b820191906000526020600020905b81548152906001019060200180831161209d57829003601f168201915b5050505050612ba390919063ffffffff16565b9392505050565b6060806060836120e3816124d5565b1515612127576040805160e560020a62461bcd0281526020600482015260166024820152600080516020613558833981519152604482015290519081900360640190fd5b6000858152600e602090815260409182902082518084019093526001835260f860020a602d02918301919091529081906121bf90612164896127a1565b8454604080516020601f60026000196101006001881615020190951694909404938401819004810282018101909252828152918791830182828015611b195780601f10611aee57610100808354040283529160200191611b19565b61222f836001018054600181600116156101000203166002900480601f01602080910402602001604051908101604052809291908181526020018280546001816001161561010002031660029004801561202c5780601f106120015761010080835404028352916020019161202c565b8254604080516020601f600260001961010060018816150201909516949094049384018190048102820181019092528281529185918301828280156122b55780601f1061228a576101008083540402835291602001916122b5565b820191906000526020600020905b81548152906001019060200180831161229857829003601f168201915b5050505050925094509450945050509193909250565b6113eb33612636565b600160a060020a03918216600090815260046020908152604080832093909416825291909152205460ff1690565b6000600f83836040518083838082843791909101948552505060405192839003602001909220549250505092915050565b61233c336112e3565b1515612394576040805160e560020a62461bcd02815260206004820152603a60248201526000805160206135788339815191526044820152600080516020613598833981519152606482015290519081900360840190fd5b8261239e816124d5565b15156123e2576040805160e560020a62461bcd0281526020600482015260166024820152600080516020613558833981519152604482015290519081900360640190fd5b6000848152600e602052604090206123fb818585613431565b5084600f61246e60408051908101604052806001815260200160f860020a602d02815250612428896127a1565b88888080601f01602080910402602001604051908101604052809392919081815260200183838082843760009201919091525092949392505063ffffffff612844169050565b6040518082805190602001908083835b6020831061249d5780518252601f19909201916020918201910161247e565b51815160209384036101000a600019018019909216911617905292019485525060405193849003019092209290925550505050505050565b600090815260016020526040902054600160a060020a0316151590565b612503600c8263ffffffff612bc016565b604051600160a060020a038216907fee1504a83b6d4a361f4c1dc78ab59bfa30d6a3b6612c403e86bb01ef2984295f90600090a250565b6000612545826124d5565b15156125c1576040805160e560020a62461bcd02815260206004820152602c60248201527f4552433732313a206f70657261746f7220717565727920666f72206e6f6e657860448201527f697374656e7420746f6b656e0000000000000000000000000000000000000000606482015290519081900360840190fd5b60006125cc836117d6565b905080600160a060020a031684600160a060020a03161480612607575083600160a060020a03166125fc84610d6b565b600160a060020a0316145b80611b2d5750611b2d81856122d4565b612622838383612c44565b61262c8382612e14565b6111018282612f04565b612647600c8263ffffffff612f4216565b604051600160a060020a038216907f270d9b30cf5b0793bbfd54c9d5b94aeb49462b8148399000265144a8722da6b690600090a250565b6000600160a060020a0382161515612706576040805160e560020a62461bcd02815260206004820152602260248201527f526f6c65733a206163636f756e7420697320746865207a65726f20616464726560448201527f7373000000000000000000000000000000000000000000000000000000000000606482015290519081900360840190fd5b50600160a060020a03166000908152602091909152604090205460ff1690565b611034612732826117d6565b82612fea565b612749600b8263ffffffff612f4216565b604051600160a060020a038216907f0a8eb35e5ca14b3d6f28e4abf2f128dbab231a58b56e89beb5d636115001e16590600090a250565b61278a8282613016565b6127948282612f04565b61279d8161315c565b5050565b60608160005b81156127bb57600101600a820491506127a7565b6060816040519080825280601f01601f1916602001820160405280156127e8576020820181803883390190505b50905060001982015b851561283b57815160001982019160f860020a6030600a8a06010291849190811061281857fe5b906020010190600160f860020a031916908160001a905350600a860495506127f1565b50949350505050565b60608084905060608490506060849050606081518351855101016040519080825280601f01601f191660200182016040528015612888576020820181803883390190505b509050806000805b86518110156128ee5786818151811015156128a757fe5b90602001015160f860020a900460f860020a0283838060010194508151811015156128ce57fe5b906020010190600160f860020a031916908160001a905350600101612890565b5060005b855181101561295057858181518110151561290957fe5b90602001015160f860020a900460f860020a02838380600101945081518110151561293057fe5b906020010190600160f860020a031916908160001a9053506001016128f2565b5060005b84518110156129b257848181518110151561296b57fe5b90602001015160f860020a900460f860020a02838380600101945081518110151561299257fe5b906020010190600160f860020a031916908160001a905350600101612954565b50909998505050505050505050565b5490565b6129d6600b8263ffffffff612bc016565b604051600160a060020a038216907f22380c05984257a1cb900161c713dd71d39e74820f1aea43bd3f1bdd2096129990600090a250565b600160a060020a0316600090815260056020526040902090565b6000612a3b84600160a060020a03166131a0565b1515612a4957506001611b2d565b6040517f150b7a020000000000000000000000000000000000000000000000000000000081523360048201818152600160a060020a03888116602485015260448401879052608060648501908152865160848601528651600095928a169463150b7a029490938c938b938b939260a4019060208501908083838e5b83811015612adc578181015183820152602001612ac4565b50505050905090810190601f168015612b095780820380516001836020036101000a031916815260200191505b5095505050505050602060405180830381600087803b158015612b2b57600080fd5b505af1158015612b3f573d6000803e3d6000fd5b505050506040513d6020811015612b5557600080fd5b50517bffffffffffffffffffffffffffffffffffffffffffffffffffffffff19167f150b7a020000000000000000000000000000000000000000000000000000000014915050949350505050565b60606120cd83836020604051908101604052806000815250612844565b612bca828261267e565b15612c1f576040805160e560020a62461bcd02815260206004820152601f60248201527f526f6c65733a206163636f756e7420616c72656164792068617320726f6c6500604482015290519081900360640190fd5b600160a060020a0316600090815260209190915260409020805460ff19166001179055565b82600160a060020a0316612c57826117d6565b600160a060020a031614612cdb576040805160e560020a62461bcd02815260206004820152602960248201527f4552433732313a207472616e73666572206f6620746f6b656e2074686174206960448201527f73206e6f74206f776e0000000000000000000000000000000000000000000000606482015290519081900360840190fd5b600160a060020a0382161515612d60576040805160e560020a62461bcd028152602060048201526024808201527f4552433732313a207472616e7366657220746f20746865207a65726f2061646460448201527f7265737300000000000000000000000000000000000000000000000000000000606482015290519081900360840190fd5b612d69816131a8565b600160a060020a0383166000908152600360205260409020612d8a906131f0565b600160a060020a0382166000908152600360205260409020612dab90613207565b600081815260016020526040808220805473ffffffffffffffffffffffffffffffffffffffff1916600160a060020a0386811691821790925591518493918716917fddf252ad1be2c89b69c2b068fc378daa952ba7f163c4a11628f55a4df523b3ef91a4505050565b600160a060020a038216600090815260056020526040812054612e3e90600163ffffffff61321016565b600083815260066020526040902054909150808214612edb57600160a060020a0384166000908152600560205260408120805484908110612e7b57fe5b90600052602060002001549050806005600087600160a060020a0316600160a060020a0316815260200190815260200160002083815481101515612ebb57fe5b600091825260208083209091019290925591825260069052604090208190555b600160a060020a0384166000908152600560205260409020805490611dad90600019830161351d565b600160a060020a0390911660009081526005602081815260408084208054868652600684529185208290559282526001810183559183529091200155565b612f4c828261267e565b1515612fc8576040805160e560020a62461bcd02815260206004820152602160248201527f526f6c65733a206163636f756e7420646f6573206e6f74206861766520726f6c60448201527f6500000000000000000000000000000000000000000000000000000000000000606482015290519081900360840190fd5b600160a060020a0316600090815260209190915260409020805460ff19169055565b612ff48282613270565b612ffe8282612e14565b60008181526006602052604081205561279d81613393565b600160a060020a0382161515613076576040805160e560020a62461bcd02815260206004820181905260248201527f4552433732313a206d696e7420746f20746865207a65726f2061646472657373604482015290519081900360640190fd5b61307f816124d5565b156130d4576040805160e560020a62461bcd02815260206004820152601c60248201527f4552433732313a20746f6b656e20616c7265616479206d696e74656400000000604482015290519081900360640190fd5b6000818152600160209081526040808320805473ffffffffffffffffffffffffffffffffffffffff1916600160a060020a03871690811790915583526003909152902061312090613207565b6040518190600160a060020a038416906000907fddf252ad1be2c89b69c2b068fc378daa952ba7f163c4a11628f55a4df523b3ef908290a45050565b600780546000838152600860205260408120829055600182018355919091527fa66cc928b5edb82af9bd49922954155ab7b0942694bea4ce44661d9a8736c6880155565b6000903b1190565b600081815260026020526040902054600160a060020a031615611034576000908152600260205260409020805473ffffffffffffffffffffffffffffffffffffffff19169055565b805461320390600163ffffffff61321016565b9055565b80546001019055565b60008282111561326a576040805160e560020a62461bcd02815260206004820152601e60248201527f536166654d6174683a207375627472616374696f6e206f766572666c6f770000604482015290519081900360640190fd5b50900390565b81600160a060020a0316613283826117d6565b600160a060020a031614613307576040805160e560020a62461bcd02815260206004820152602560248201527f4552433732313a206275726e206f6620746f6b656e2074686174206973206e6f60448201527f74206f776e000000000000000000000000000000000000000000000000000000606482015290519081900360840190fd5b613310816131a8565b600160a060020a0382166000908152600360205260409020613331906131f0565b600081815260016020526040808220805473ffffffffffffffffffffffffffffffffffffffff1916905551829190600160a060020a038516907fddf252ad1be2c89b69c2b068fc378daa952ba7f163c4a11628f55a4df523b3ef908390a45050565b6007546000906133aa90600163ffffffff61321016565b600083815260086020526040812054600780549394509092849081106133cc57fe5b90600052602060002001549050806007838154811015156133e957fe5b6000918252602080832090910192909255828152600890915260409020829055600780549061341c90600019830161351d565b50505060009182525060086020526040812055565b828054600181600116156101000203166002900490600052602060002090601f016020900481019282601f106134725782800160ff1982351617855561349f565b8280016001018555821561349f579182015b8281111561349f578235825591602001919060010190613484565b506134ab92915061353d565b5090565b828054600181600116156101000203166002900490600052602060002090601f016020900481019282601f106134f057805160ff191683800117855561349f565b8280016001018555821561349f579182015b8281111561349f578251825591602001919060010190613502565b815481835581811115611101576000838152602090206111019181019083015b610d6891905b808211156134ab576000815560010161354356fe546f6b656e206e6f7420666f756e6420666f722049440000000000000000000057686974656c6973746564526f6c653a2063616c6c657220646f6573206e6f742068617665207468652057686974656c697374656420726f6c65000000000000a165627a7a72305820d635ccdedab52b1d99f9305443d64d1e0a8394b16d5d79a2d646d821ceda480d0029",
  "source": "pragma solidity ^0.5.0;\n\nimport \"@openzeppelin/contracts/math/SafeMath.sol\";\nimport \"@openzeppelin/contracts/access/roles/WhitelistedRole.sol\";\n\nimport \"../libs/Strings.sol\";\nimport \"../interfaces/erc721/CustomERC721Full.sol\";\nimport \"../interfaces/ITokenlandiaTokenCreator.sol\";\n\ncontract Tokenlandia is CustomERC721Full, ITokenlandiaTokenCreator, WhitelistedRole {\n    using SafeMath for uint256;\n    using Strings for string;\n\n    string public tokenBaseURI = \"\";\n\n    struct Token {\n        string productCode;\n        string ipfsHash;\n    }\n\n    mapping(uint256 => Token) internal tokens;\n\n    // Reverse mapping so we can lookup the token from the product ID\n    mapping(string => uint256) internal productIdToTokenId;\n\n    modifier onlyWhenTokenExists(uint256 _tokenId) {\n        require(_exists(_tokenId), \"Token not found for ID\");\n        _;\n    }\n\n    constructor (string memory _tokenBaseURI) public CustomERC721Full(\"TokenLandia NFT\", \"TLN\") {\n        super.addWhitelisted(msg.sender);\n        tokenBaseURI = _tokenBaseURI;\n    }\n\n    /**\n     * Mint a token to a specific recipient\n     * @dev Only callable from whitelisted address\n     * @param _tokenId uint256 id of the token\n     * @param _recipient address of the recipient\n     * @param _productCode string the product code identified - [productCode-tokenId] provides a uniqueness guarantee\n     * @param _ipfsHash string the IPFS hash\n     **/\n    function mintToken(\n        uint256 _tokenId,\n        address _recipient,\n        string calldata _productCode,\n        string calldata _ipfsHash\n    ) external onlyWhitelisted returns (bool success) {\n        require(bytes(_productCode).length > 0, \"Product code invalid\");\n        require(bytes(_ipfsHash).length > 0, \"IPFS hash invalid\");\n\n        // Create Token metadata\n        tokens[_tokenId] = Token({\n            productCode : _productCode,\n            ipfsHash : _ipfsHash\n            });\n\n        // Mint token\n        _mint(_recipient, _tokenId);\n\n        // Create reverse lookup from productId to tokenId\n        productIdToTokenId[_productCode.strConcat(\"-\", Strings.uint2str(_tokenId))] = _tokenId;\n\n        return true;\n    }\n\n    function attributes(uint256 _tokenId)\n    external\n    onlyWhenTokenExists(_tokenId) view returns (\n        string memory _productCode,\n        string memory _productId,\n        string memory _ipfsUrl\n    ) {\n        Token storage token = tokens[_tokenId];\n        return (\n        token.productCode,\n        token.productCode.strConcat(\"-\", Strings.uint2str(_tokenId)),\n        tokenBaseURI.strConcat(token.ipfsHash)\n        );\n    }\n\n    function productCode(uint256 _tokenId)\n    external\n    onlyWhenTokenExists(_tokenId) view returns (string memory _productCode) {\n        Token storage token = tokens[_tokenId];\n        return token.productCode;\n    }\n\n    function productId(uint256 _tokenId)\n    external\n    onlyWhenTokenExists(_tokenId) view returns (string memory _productId) {\n        Token storage token = tokens[_tokenId];\n        return token.productCode.strConcat(\"-\", Strings.uint2str(_tokenId));\n    }\n\n    function tokenIdForProductId(string calldata _productId)\n    external\n    view returns (uint256 _tokenId) {\n        return productIdToTokenId[_productId];\n    }\n\n    function tokenURI(uint256 _tokenId)\n    external\n    onlyWhenTokenExists(_tokenId) view returns (string memory) {\n        return tokenBaseURI.strConcat(tokens[_tokenId].ipfsHash);\n    }\n\n    function tokensOfOwner(address owner)\n    external\n    view returns (uint256[] memory) {\n        return _tokensOfOwner(owner);\n    }\n\n    function updateProductCode(uint256 _tokenId, string calldata _productCode)\n    external\n    onlyWhitelisted onlyWhenTokenExists(_tokenId) {\n        Token storage token = tokens[_tokenId];\n        token.productCode = _productCode;\n\n        productIdToTokenId[_productCode.strConcat(\"-\", Strings.uint2str(_tokenId))] = _tokenId;\n    }\n\n    /**\n     * @dev Burns a specific token.\n     * @dev Only callable from whitelisted address\n     * @param tokenId uint256 id of the token to be burned.\n     */\n    function burn(uint256 tokenId)\n    public\n    onlyWhitelisted {\n        require(_isApprovedOrOwner(msg.sender, tokenId), \"Caller is not owner nor approved\");\n        _burn(tokenId);\n    }\n\n    function updateIpfsHash(uint256 _tokenId, string calldata _newIpfsHash)\n    external\n    onlyWhitelisted onlyWhenTokenExists(_tokenId) {\n        require(bytes(_newIpfsHash).length != 0, \"New IPFS hash invalid\");\n        tokens[_tokenId].ipfsHash = _newIpfsHash;\n    }\n\n    function updateTokenBaseURI(string calldata _newBaseURI)\n    external\n    onlyWhitelisted {\n        require(bytes(_newBaseURI).length != 0, \"Base URI invalid\");\n        tokenBaseURI = _newBaseURI;\n    }\n}\n",
  "sourcePath": "/Users/vincentdealmeida/Projects/tokenlandia-contracts/contracts/token/Tokenlandia.sol",
  "compiler": {
    "name": "solc",
    "version": "0.5.0+commit.1d4f565a.Emscripten.clang"
  },
  "schemaVersion": "3.0.16",
  "updatedAt": "2019-10-09T10:53:17.808Z",
  "devdoc": {
    "methods": {
      "approve(address,uint256)": {
        "details": "Approves another address to transfer the given token ID The zero address indicates there is no approved address. There can only be one approved address per token at a given time. Can only be called by the token owner or an approved operator.",
        "params": {
          "to": "address to be approved for the given token ID",
          "tokenId": "uint256 ID of the token to be approved"
        }
      },
      "balanceOf(address)": {
        "details": "Gets the balance of the specified address.",
        "params": {
          "owner": "address to query the balance of"
        },
        "return": "uint256 representing the amount owned by the passed address"
      },
      "burn(uint256)": {
        "details": "Burns a specific token.Only callable from whitelisted address",
        "params": {
          "tokenId": "uint256 id of the token to be burned."
        }
      },
      "getApproved(uint256)": {
        "details": "Gets the approved address for a token ID, or zero if no address set Reverts if the token ID does not exist.",
        "params": {
          "tokenId": "uint256 ID of the token to query the approval of"
        },
        "return": "address currently approved for the given token ID"
      },
      "isApprovedForAll(address,address)": {
        "details": "Tells whether an operator is approved by a given owner.",
        "params": {
          "operator": "operator address which you want to query the approval of",
          "owner": "owner address which you want to query the approval of"
        },
        "return": "bool whether the given operator is approved by the given owner"
      },
      "mintToken(uint256,address,string,string)": {
        "details": "Only callable from whitelisted address",
        "params": {
          "_ipfsHash": "string the IPFS hash*",
          "_productCode": "string the product code identified - [productCode-tokenId] provides a uniqueness guarantee",
          "_recipient": "address of the recipient",
          "_tokenId": "uint256 id of the token"
        }
      },
      "name()": {
        "details": "Gets the token name.",
        "return": "string representing the token name"
      },
      "ownerOf(uint256)": {
        "details": "Gets the owner of the specified token ID.",
        "params": {
          "tokenId": "uint256 ID of the token to query the owner of"
        },
        "return": "address currently marked as the owner of the given token ID"
      },
      "safeTransferFrom(address,address,uint256)": {
        "details": "Safely transfers the ownership of a given token ID to another address If the target address is a contract, it must implement `onERC721Received`, which is called upon a safe transfer, and return the magic value `bytes4(keccak256(\"onERC721Received(address,address,uint256,bytes)\"))`; otherwise, the transfer is reverted. Requires the msg.sender to be the owner, approved, or operator",
        "params": {
          "from": "current owner of the token",
          "to": "address to receive the ownership of the given token ID",
          "tokenId": "uint256 ID of the token to be transferred"
        }
      },
      "safeTransferFrom(address,address,uint256,bytes)": {
        "details": "Safely transfers the ownership of a given token ID to another address If the target address is a contract, it must implement `onERC721Received`, which is called upon a safe transfer, and return the magic value `bytes4(keccak256(\"onERC721Received(address,address,uint256,bytes)\"))`; otherwise, the transfer is reverted. Requires the msg.sender to be the owner, approved, or operator",
        "params": {
          "_data": "bytes data to send along with a safe transfer check",
          "from": "current owner of the token",
          "to": "address to receive the ownership of the given token ID",
          "tokenId": "uint256 ID of the token to be transferred"
        }
      },
      "setApprovalForAll(address,bool)": {
        "details": "Sets or unsets the approval of a given operator An operator is allowed to transfer all tokens of the sender on their behalf.",
        "params": {
          "approved": "representing the status of the approval to be set",
          "to": "operator address to set the approval"
        }
      },
      "supportsInterface(bytes4)": {
        "details": "See `IERC165.supportsInterface`.     * Time complexity O(1), guaranteed to always use less than 30 000 gas."
      },
      "symbol()": {
        "details": "Gets the token symbol.",
        "return": "string representing the token symbol"
      },
      "tokenByIndex(uint256)": {
        "details": "Gets the token ID at a given index of all the tokens in this contract Reverts if the index is greater or equal to the total number of tokens.",
        "params": {
          "index": "uint256 representing the index to be accessed of the tokens list"
        },
        "return": "uint256 token ID at the given index of the tokens list"
      },
      "tokenOfOwnerByIndex(address,uint256)": {
        "details": "Gets the token ID at a given index of the tokens list of the requested owner.",
        "params": {
          "index": "uint256 representing the index to be accessed of the requested tokens list",
          "owner": "address owning the tokens list to be accessed"
        },
        "return": "uint256 token ID at the given index of the tokens list owned by the requested address"
      },
      "totalSupply()": {
        "details": "Gets the total amount of tokens stored by the contract.",
        "return": "uint256 representing the total amount of tokens"
      },
      "transferFrom(address,address,uint256)": {
        "details": "Transfers the ownership of a given token ID to another address. Usage of this method is discouraged, use `safeTransferFrom` whenever possible. Requires the msg.sender to be the owner, approved, or operator.",
        "params": {
          "from": "current owner of the token",
          "to": "address to receive the ownership of the given token ID",
          "tokenId": "uint256 ID of the token to be transferred"
        }
      }
    }
  },
  "userdoc": {
    "methods": {
      "mintToken(uint256,address,string,string)": {
        "notice": "Mint a token to a specific recipient"
      }
    }
  }
}