{
  "contractName": "Tokenlandia",
  "abi": [
    {
      "inputs": [
        {
          "internalType": "string",
          "name": "_tokenBaseURI",
          "type": "string"
        }
      ],
      "payable": false,
      "stateMutability": "nonpayable",
      "type": "constructor"
    },
    {
      "anonymous": false,
      "inputs": [
        {
          "indexed": true,
          "internalType": "address",
          "name": "owner",
          "type": "address"
        },
        {
          "indexed": true,
          "internalType": "address",
          "name": "approved",
          "type": "address"
        },
        {
          "indexed": true,
          "internalType": "uint256",
          "name": "tokenId",
          "type": "uint256"
        }
      ],
      "name": "Approval",
      "type": "event"
    },
    {
      "anonymous": false,
      "inputs": [
        {
          "indexed": true,
          "internalType": "address",
          "name": "owner",
          "type": "address"
        },
        {
          "indexed": true,
          "internalType": "address",
          "name": "operator",
          "type": "address"
        },
        {
          "indexed": false,
          "internalType": "bool",
          "name": "approved",
          "type": "bool"
        }
      ],
      "name": "ApprovalForAll",
      "type": "event"
    },
    {
      "anonymous": false,
      "inputs": [
        {
          "indexed": true,
          "internalType": "address",
          "name": "from",
          "type": "address"
        },
        {
          "indexed": true,
          "internalType": "address",
          "name": "to",
          "type": "address"
        },
        {
          "indexed": true,
          "internalType": "uint256",
          "name": "tokenId",
          "type": "uint256"
        }
      ],
      "name": "Transfer",
      "type": "event"
    },
    {
      "anonymous": false,
      "inputs": [
        {
          "indexed": true,
          "internalType": "address",
          "name": "account",
          "type": "address"
        }
      ],
      "name": "WhitelistAdminAdded",
      "type": "event"
    },
    {
      "anonymous": false,
      "inputs": [
        {
          "indexed": true,
          "internalType": "address",
          "name": "account",
          "type": "address"
        }
      ],
      "name": "WhitelistAdminRemoved",
      "type": "event"
    },
    {
      "anonymous": false,
      "inputs": [
        {
          "indexed": true,
          "internalType": "address",
          "name": "account",
          "type": "address"
        }
      ],
      "name": "WhitelistedAdded",
      "type": "event"
    },
    {
      "anonymous": false,
      "inputs": [
        {
          "indexed": true,
          "internalType": "address",
          "name": "account",
          "type": "address"
        }
      ],
      "name": "WhitelistedRemoved",
      "type": "event"
    },
    {
      "constant": false,
      "inputs": [
        {
          "internalType": "address",
          "name": "account",
          "type": "address"
        }
      ],
      "name": "addWhitelistAdmin",
      "outputs": [],
      "payable": false,
      "stateMutability": "nonpayable",
      "type": "function"
    },
    {
      "constant": false,
      "inputs": [
        {
          "internalType": "address",
          "name": "account",
          "type": "address"
        }
      ],
      "name": "addWhitelisted",
      "outputs": [],
      "payable": false,
      "stateMutability": "nonpayable",
      "type": "function"
    },
    {
      "constant": false,
      "inputs": [
        {
          "internalType": "address",
          "name": "to",
          "type": "address"
        },
        {
          "internalType": "uint256",
          "name": "tokenId",
          "type": "uint256"
        }
      ],
      "name": "approve",
      "outputs": [],
      "payable": false,
      "stateMutability": "nonpayable",
      "type": "function"
    },
    {
      "constant": true,
      "inputs": [
        {
          "internalType": "address",
          "name": "owner",
          "type": "address"
        }
      ],
      "name": "balanceOf",
      "outputs": [
        {
          "internalType": "uint256",
          "name": "",
          "type": "uint256"
        }
      ],
      "payable": false,
      "stateMutability": "view",
      "type": "function"
    },
    {
      "constant": true,
      "inputs": [
        {
          "internalType": "uint256",
          "name": "tokenId",
          "type": "uint256"
        }
      ],
      "name": "getApproved",
      "outputs": [
        {
          "internalType": "address",
          "name": "",
          "type": "address"
        }
      ],
      "payable": false,
      "stateMutability": "view",
      "type": "function"
    },
    {
      "constant": true,
      "inputs": [
        {
          "internalType": "address",
          "name": "owner",
          "type": "address"
        },
        {
          "internalType": "address",
          "name": "operator",
          "type": "address"
        }
      ],
      "name": "isApprovedForAll",
      "outputs": [
        {
          "internalType": "bool",
          "name": "",
          "type": "bool"
        }
      ],
      "payable": false,
      "stateMutability": "view",
      "type": "function"
    },
    {
      "constant": true,
      "inputs": [
        {
          "internalType": "address",
          "name": "account",
          "type": "address"
        }
      ],
      "name": "isWhitelistAdmin",
      "outputs": [
        {
          "internalType": "bool",
          "name": "",
          "type": "bool"
        }
      ],
      "payable": false,
      "stateMutability": "view",
      "type": "function"
    },
    {
      "constant": true,
      "inputs": [
        {
          "internalType": "address",
          "name": "account",
          "type": "address"
        }
      ],
      "name": "isWhitelisted",
      "outputs": [
        {
          "internalType": "bool",
          "name": "",
          "type": "bool"
        }
      ],
      "payable": false,
      "stateMutability": "view",
      "type": "function"
    },
    {
      "constant": true,
      "inputs": [],
      "name": "name",
      "outputs": [
        {
          "internalType": "string",
          "name": "",
          "type": "string"
        }
      ],
      "payable": false,
      "stateMutability": "view",
      "type": "function"
    },
    {
      "constant": true,
      "inputs": [
        {
          "internalType": "uint256",
          "name": "tokenId",
          "type": "uint256"
        }
      ],
      "name": "ownerOf",
      "outputs": [
        {
          "internalType": "address",
          "name": "",
          "type": "address"
        }
      ],
      "payable": false,
      "stateMutability": "view",
      "type": "function"
    },
    {
      "constant": false,
      "inputs": [
        {
          "internalType": "address",
          "name": "account",
          "type": "address"
        }
      ],
      "name": "removeWhitelisted",
      "outputs": [],
      "payable": false,
      "stateMutability": "nonpayable",
      "type": "function"
    },
    {
      "constant": false,
      "inputs": [],
      "name": "renounceWhitelistAdmin",
      "outputs": [],
      "payable": false,
      "stateMutability": "nonpayable",
      "type": "function"
    },
    {
      "constant": false,
      "inputs": [],
      "name": "renounceWhitelisted",
      "outputs": [],
      "payable": false,
      "stateMutability": "nonpayable",
      "type": "function"
    },
    {
      "constant": false,
      "inputs": [
        {
          "internalType": "address",
          "name": "from",
          "type": "address"
        },
        {
          "internalType": "address",
          "name": "to",
          "type": "address"
        },
        {
          "internalType": "uint256",
          "name": "tokenId",
          "type": "uint256"
        }
      ],
      "name": "safeTransferFrom",
      "outputs": [],
      "payable": false,
      "stateMutability": "nonpayable",
      "type": "function"
    },
    {
      "constant": false,
      "inputs": [
        {
          "internalType": "address",
          "name": "from",
          "type": "address"
        },
        {
          "internalType": "address",
          "name": "to",
          "type": "address"
        },
        {
          "internalType": "uint256",
          "name": "tokenId",
          "type": "uint256"
        },
        {
          "internalType": "bytes",
          "name": "_data",
          "type": "bytes"
        }
      ],
      "name": "safeTransferFrom",
      "outputs": [],
      "payable": false,
      "stateMutability": "nonpayable",
      "type": "function"
    },
    {
      "constant": false,
      "inputs": [
        {
          "internalType": "address",
          "name": "to",
          "type": "address"
        },
        {
          "internalType": "bool",
          "name": "approved",
          "type": "bool"
        }
      ],
      "name": "setApprovalForAll",
      "outputs": [],
      "payable": false,
      "stateMutability": "nonpayable",
      "type": "function"
    },
    {
      "constant": true,
      "inputs": [
        {
          "internalType": "bytes4",
          "name": "interfaceId",
          "type": "bytes4"
        }
      ],
      "name": "supportsInterface",
      "outputs": [
        {
          "internalType": "bool",
          "name": "",
          "type": "bool"
        }
      ],
      "payable": false,
      "stateMutability": "view",
      "type": "function"
    },
    {
      "constant": true,
      "inputs": [],
      "name": "symbol",
      "outputs": [
        {
          "internalType": "string",
          "name": "",
          "type": "string"
        }
      ],
      "payable": false,
      "stateMutability": "view",
      "type": "function"
    },
    {
      "constant": true,
      "inputs": [],
      "name": "tokenBaseURI",
      "outputs": [
        {
          "internalType": "string",
          "name": "",
          "type": "string"
        }
      ],
      "payable": false,
      "stateMutability": "view",
      "type": "function"
    },
    {
      "constant": true,
      "inputs": [
        {
          "internalType": "uint256",
          "name": "index",
          "type": "uint256"
        }
      ],
      "name": "tokenByIndex",
      "outputs": [
        {
          "internalType": "uint256",
          "name": "",
          "type": "uint256"
        }
      ],
      "payable": false,
      "stateMutability": "view",
      "type": "function"
    },
    {
      "constant": true,
      "inputs": [
        {
          "internalType": "address",
          "name": "owner",
          "type": "address"
        },
        {
          "internalType": "uint256",
          "name": "index",
          "type": "uint256"
        }
      ],
      "name": "tokenOfOwnerByIndex",
      "outputs": [
        {
          "internalType": "uint256",
          "name": "",
          "type": "uint256"
        }
      ],
      "payable": false,
      "stateMutability": "view",
      "type": "function"
    },
    {
      "constant": true,
      "inputs": [],
      "name": "totalSupply",
      "outputs": [
        {
          "internalType": "uint256",
          "name": "",
          "type": "uint256"
        }
      ],
      "payable": false,
      "stateMutability": "view",
      "type": "function"
    },
    {
      "constant": false,
      "inputs": [
        {
          "internalType": "address",
          "name": "from",
          "type": "address"
        },
        {
          "internalType": "address",
          "name": "to",
          "type": "address"
        },
        {
          "internalType": "uint256",
          "name": "tokenId",
          "type": "uint256"
        }
      ],
      "name": "transferFrom",
      "outputs": [],
      "payable": false,
      "stateMutability": "nonpayable",
      "type": "function"
    },
    {
      "constant": false,
      "inputs": [
        {
          "internalType": "uint256",
          "name": "_tokenId",
          "type": "uint256"
        },
        {
          "internalType": "address",
          "name": "_recipient",
          "type": "address"
        },
        {
          "internalType": "string",
          "name": "_productCode",
          "type": "string"
        },
        {
          "internalType": "string",
          "name": "_ipfsHash",
          "type": "string"
        }
      ],
      "name": "mintToken",
      "outputs": [
        {
          "internalType": "bool",
          "name": "success",
          "type": "bool"
        }
      ],
      "payable": false,
      "stateMutability": "nonpayable",
      "type": "function"
    },
    {
      "constant": true,
      "inputs": [
        {
          "internalType": "string",
          "name": "productId",
          "type": "string"
        }
      ],
      "name": "ipfsUrlForProductId",
      "outputs": [
        {
          "internalType": "string",
          "name": "_ipfsUrl",
          "type": "string"
        }
      ],
      "payable": false,
      "stateMutability": "view",
      "type": "function"
    },
    {
      "constant": true,
      "inputs": [
        {
          "internalType": "uint256",
          "name": "_tokenId",
          "type": "uint256"
        }
      ],
      "name": "attributes",
      "outputs": [
        {
          "internalType": "string",
          "name": "_productCode",
          "type": "string"
        },
        {
          "internalType": "string",
          "name": "_productId",
          "type": "string"
        },
        {
          "internalType": "string",
          "name": "_ipfsUrl",
          "type": "string"
        }
      ],
      "payable": false,
      "stateMutability": "view",
      "type": "function"
    },
    {
      "constant": true,
      "inputs": [
        {
          "internalType": "uint256",
          "name": "_tokenId",
          "type": "uint256"
        }
      ],
      "name": "productCode",
      "outputs": [
        {
          "internalType": "string",
          "name": "_productCode",
          "type": "string"
        }
      ],
      "payable": false,
      "stateMutability": "view",
      "type": "function"
    },
    {
      "constant": true,
      "inputs": [
        {
          "internalType": "uint256",
          "name": "_tokenId",
          "type": "uint256"
        }
      ],
      "name": "productId",
      "outputs": [
        {
          "internalType": "string",
          "name": "_productId",
          "type": "string"
        }
      ],
      "payable": false,
      "stateMutability": "view",
      "type": "function"
    },
    {
      "constant": true,
      "inputs": [
        {
          "internalType": "string",
          "name": "_productId",
          "type": "string"
        }
      ],
      "name": "tokenIdForProductId",
      "outputs": [
        {
          "internalType": "uint256",
          "name": "_tokenId",
          "type": "uint256"
        }
      ],
      "payable": false,
      "stateMutability": "view",
      "type": "function"
    },
    {
      "constant": true,
      "inputs": [
        {
          "internalType": "uint256",
          "name": "_tokenId",
          "type": "uint256"
        }
      ],
      "name": "tokenURI",
      "outputs": [
        {
          "internalType": "string",
          "name": "",
          "type": "string"
        }
      ],
      "payable": false,
      "stateMutability": "view",
      "type": "function"
    },
    {
      "constant": true,
      "inputs": [
        {
          "internalType": "address",
          "name": "owner",
          "type": "address"
        }
      ],
      "name": "tokensOfOwner",
      "outputs": [
        {
          "internalType": "uint256[]",
          "name": "",
          "type": "uint256[]"
        }
      ],
      "payable": false,
      "stateMutability": "view",
      "type": "function"
    },
    {
      "constant": false,
      "inputs": [
        {
          "internalType": "uint256",
          "name": "_tokenId",
          "type": "uint256"
        },
        {
          "internalType": "string",
          "name": "_productCode",
          "type": "string"
        }
      ],
      "name": "updateProductCode",
      "outputs": [],
      "payable": false,
      "stateMutability": "nonpayable",
      "type": "function"
    },
    {
      "constant": false,
      "inputs": [
        {
          "internalType": "uint256",
          "name": "_tokenId",
          "type": "uint256"
        }
      ],
      "name": "burn",
      "outputs": [],
      "payable": false,
      "stateMutability": "nonpayable",
      "type": "function"
    },
    {
      "constant": false,
      "inputs": [
        {
          "internalType": "uint256",
          "name": "_tokenId",
          "type": "uint256"
        },
        {
          "internalType": "string",
          "name": "_newIpfsHash",
          "type": "string"
        }
      ],
      "name": "updateIpfsHash",
      "outputs": [],
      "payable": false,
      "stateMutability": "nonpayable",
      "type": "function"
    },
    {
      "constant": false,
      "inputs": [
        {
          "internalType": "string",
          "name": "_newBaseURI",
          "type": "string"
        }
      ],
      "name": "updateTokenBaseURI",
      "outputs": [],
      "payable": false,
      "stateMutability": "nonpayable",
      "type": "function"
    }
  ],
  "bytecode": "0x60a06040819052600060808190526200001b91600d916200062f565b503480156200002957600080fd5b5060405162003c2638038062003c26833981810160405260208110156200004f57600080fd5b81019080805160405193929190846401000000008211156200007057600080fd5b9083019060208201858111156200008657600080fd5b8251640100000000811182820188101715620000a157600080fd5b82525081516020918201929091019080838360005b83811015620000d0578181015183820152602001620000b6565b50505050905090810190601f168015620000fe5780820380516001836020036101000a031916815260200191505b5060408181018152600f82527f546f6b656e4c616e646961204e465400000000000000000000000000000000006020808401919091528151808301909252600382527f544c4e000000000000000000000000000000000000000000000000000000000090820152909350915082905081620001a27f01ffc9a7000000000000000000000000000000000000000000000000000000006001600160e01b03620002d616565b620001d67f80ac58cd000000000000000000000000000000000000000000000000000000006001600160e01b03620002d616565b6200020a7f780e9d63000000000000000000000000000000000000000000000000000000006001600160e01b03620002d616565b81516200021f9060099060208501906200062f565b5080516200023590600a9060208401906200062f565b506200026a7f5b5e139f000000000000000000000000000000000000000000000000000000006001600160e01b03620002d616565b505050506200029162000282620003a560201b60201c565b6001600160e01b03620003aa16565b620002b9620002a86001600160e01b03620003a516565b620003fc60201b62000ddb1760201c565b8051620002ce90600d9060208401906200062f565b5050620006d1565b7fffffffff0000000000000000000000000000000000000000000000000000000080821614156200036857604080517f08c379a000000000000000000000000000000000000000000000000000000000815260206004820152601c60248201527f4552433136353a20696e76616c696420696e7465726661636520696400000000604482015290519081900360640190fd5b7fffffffff00000000000000000000000000000000000000000000000000000000166000908152602081905260409020805460ff19166001179055565b335b90565b620003c581600b6200049060201b620027661790919060201c565b6040516001600160a01b038216907f22380c05984257a1cb900161c713dd71d39e74820f1aea43bd3f1bdd2096129990600090a250565b62000422620004136001600160e01b03620003a516565b6001600160e01b036200053716565b62000479576040517f08c379a000000000000000000000000000000000000000000000000000000000815260040180806020018281038252604081526020018062003be66040913960400191505060405180910390fd5b6200048d816001600160e01b036200055a16565b50565b620004a582826001600160e01b03620005ac16565b156200051257604080517f08c379a000000000000000000000000000000000000000000000000000000000815260206004820152601f60248201527f526f6c65733a206163636f756e7420616c72656164792068617320726f6c6500604482015290519081900360640190fd5b6001600160a01b0316600090815260209190915260409020805460ff19166001179055565b60006200055482600b620005ac60201b620025081790919060201c565b92915050565b6200057581600c6200049060201b620027661790919060201c565b6040516001600160a01b038216907fee1504a83b6d4a361f4c1dc78ab59bfa30d6a3b6612c403e86bb01ef2984295f90600090a250565b60006001600160a01b0382166200060f576040517f08c379a000000000000000000000000000000000000000000000000000000000815260040180806020018281038252602281526020018062003bc46022913960400191505060405180910390fd5b506001600160a01b03166000908152602091909152604090205460ff1690565b828054600181600116156101000203166002900490600052602060002090601f016020900481019282601f106200067257805160ff1916838001178555620006a2565b82800160010185558215620006a2579182015b82811115620006a257825182559160200191906001019062000685565b50620006b0929150620006b4565b5090565b620003a791905b80821115620006b05760008155600101620006bb565b6134e380620006e16000396000f3fe608060405234801561001057600080fd5b50600436106102115760003560e01c80636352211e11610125578063b88d4fde116100ad578063d6cd94731161007c578063d6cd947314610a10578063d940a7ea14610a18578063e985e9c514610a86578063ead25d1514610ab4578063f1e95a3514610b2257610211565b8063b88d4fde146107a8578063bb5f747b1461086c578063c87b56dd14610892578063d05dcc6a146108af57610211565b80638b174b1b116100f45780638b174b1b146106c35780638ed2be82146106e057806395d89b41146106fd5780639611c05114610705578063a22cb4651461077a57610211565b80636352211e146105e457806370a08231146106015780637362d9c8146106275780638462151c1461064d57610211565b8063291d9549116101a857806342966c681161017757806342966c68146104c75780634c5a628c146104e45780634e99b800146104ec5780634f6ccce7146104f45780636289fa611461051157610211565b8063291d9549146104195780632f745c591461043f5780633af32abf1461046b57806342842e0e1461049157610211565b806310154bad116101e457806310154bad1461033557806318160ddd1461035b5780632295ee5b1461037557806323b872dd146103e357610211565b806301ffc9a71461021657806306fdde0314610251578063081812fc146102ce578063095ea7b314610307575b600080fd5b61023d6004803603602081101561022c57600080fd5b50356001600160e01b031916610b97565b604080519115158252519081900360200190f35b610259610bba565b6040805160208082528351818301528351919283929083019185019080838360005b8381101561029357818101518382015260200161027b565b50505050905090810190601f1680156102c05780820380516001836020036101000a031916815260200191505b509250505060405180910390f35b6102eb600480360360208110156102e457600080fd5b5035610c51565b604080516001600160a01b039092168252519081900360200190f35b6103336004803603604081101561031d57600080fd5b506001600160a01b038135169060200135610cb3565b005b6103336004803603602081101561034b57600080fd5b50356001600160a01b0316610ddb565b610363610e32565b60408051918252519081900360200190f35b6103336004803603602081101561038b57600080fd5b810190602081018135600160201b8111156103a557600080fd5b8201836020820111156103b757600080fd5b803590602001918460018302840111600160201b831117156103d857600080fd5b509092509050610e38565b610333600480360360608110156103f957600080fd5b506001600160a01b03813581169160208101359091169060400135610ed9565b6103336004803603602081101561042f57600080fd5b50356001600160a01b0316610f30565b6103636004803603604081101561045557600080fd5b506001600160a01b038135169060200135610f7f565b61023d6004803603602081101561048157600080fd5b50356001600160a01b0316610ffe565b610333600480360360608110156104a757600080fd5b506001600160a01b03813581169160208101359091169060400135611017565b610333600480360360208110156104dd57600080fd5b5035611032565b610333611218565b61025961122a565b6103636004803603602081101561050a57600080fd5b50356112b8565b61023d6004803603608081101561052757600080fd5b8135916001600160a01b0360208201351691810190606081016040820135600160201b81111561055657600080fd5b82018360208201111561056857600080fd5b803590602001918460018302840111600160201b8311171561058957600080fd5b919390929091602081019035600160201b8111156105a657600080fd5b8201836020820111156105b857600080fd5b803590602001918460018302840111600160201b831117156105d957600080fd5b50909250905061131e565b6102eb600480360360208110156105fa57600080fd5b50356115b1565b6103636004803603602081101561061757600080fd5b50356001600160a01b0316611605565b6103336004803603602081101561063d57600080fd5b50356001600160a01b031661166d565b6106736004803603602081101561066357600080fd5b50356001600160a01b03166116bc565b60408051602080825283518183015283519192839290830191858101910280838360005b838110156106af578181015183820152602001610697565b505050509050019250505060405180910390f35b610259600480360360208110156106d957600080fd5b503561171d565b610259600480360360208110156106f657600080fd5b503561185c565b610259611953565b6103336004803603604081101561071b57600080fd5b81359190810190604081016020820135600160201b81111561073c57600080fd5b82018360208201111561074e57600080fd5b803590602001918460018302840111600160201b8311171561076f57600080fd5b5090925090506119b4565b6103336004803603604081101561079057600080fd5b506001600160a01b0381351690602001351515611ab7565b610333600480360360808110156107be57600080fd5b6001600160a01b03823581169260208101359091169160408201359190810190608081016060820135600160201b8111156107f857600080fd5b82018360208201111561080a57600080fd5b803590602001918460018302840111600160201b8311171561082b57600080fd5b91908080601f016020809104026020016040519081016040528093929190818152602001838380828437600092019190915250929550611bbc945050505050565b61023d6004803603602081101561088257600080fd5b50356001600160a01b0316611c1a565b610259600480360360208110156108a857600080fd5b5035611c2d565b6108cc600480360360208110156108c557600080fd5b5035611d6a565b60405180806020018060200180602001848103845287818151815260200191508051906020019080838360005b838110156109115781810151838201526020016108f9565b50505050905090810190601f16801561093e5780820380516001836020036101000a031916815260200191505b50848103835286518152865160209182019188019080838360005b83811015610971578181015183820152602001610959565b50505050905090810190601f16801561099e5780820380516001836020036101000a031916815260200191505b50848103825285518152855160209182019187019080838360005b838110156109d15781810151838201526020016109b9565b50505050905090810190601f1680156109fe5780820380516001836020036101000a031916815260200191505b50965050505050505060405180910390f35b61033361200e565b61025960048036036020811015610a2e57600080fd5b810190602081018135600160201b811115610a4857600080fd5b820183602082011115610a5a57600080fd5b803590602001918460018302840111600160201b83111715610a7b57600080fd5b50909250905061201e565b61023d60048036036040811015610a9c57600080fd5b506001600160a01b0381358116916020013516612192565b61036360048036036020811015610aca57600080fd5b810190602081018135600160201b811115610ae457600080fd5b820183602082011115610af657600080fd5b803590602001918460018302840111600160201b83111715610b1757600080fd5b5090925090506121c0565b61033360048036036040811015610b3857600080fd5b81359190810190604081016020820135600160201b811115610b5957600080fd5b820183602082011115610b6b57600080fd5b803590602001918460018302840111600160201b83111715610b8c57600080fd5b5090925090506121f1565b6001600160e01b0319811660009081526020819052604090205460ff165b919050565b60098054604080516020601f6002600019610100600188161502019095169490940493840181900481028201810190925282815260609390929091830182828015610c465780601f10610c1b57610100808354040283529160200191610c46565b820191906000526020600020905b815481529060010190602001808311610c2957829003601f168201915b505050505090505b90565b6000610c5c82612394565b610c975760405162461bcd60e51b815260040180806020018281038252602c81526020018061331b602c913960400191505060405180910390fd5b506000908152600260205260409020546001600160a01b031690565b6000610cbe826115b1565b9050806001600160a01b0316836001600160a01b03161415610d115760405162461bcd60e51b815260040180806020018281038252602181526020018061340c6021913960400191505060405180910390fd5b806001600160a01b0316610d236123b1565b6001600160a01b03161480610d445750610d4481610d3f6123b1565b612192565b610d7f5760405162461bcd60e51b815260040180806020018281038252603881526020018061326f6038913960400191505060405180910390fd5b60008281526002602052604080822080546001600160a01b0319166001600160a01b0387811691821790925591518593918516917f8c5be1e5ebec7d5bd14f71427d1e84f3dd0314c0f7b2291e5b200ac8c7c3b92591a4505050565b610deb610de66123b1565b611c1a565b610e265760405162461bcd60e51b81526004018080602001828103825260408152602001806133926040913960400191505060405180910390fd5b610e2f816123b5565b50565b60075490565b610e48610e436123b1565b610ffe565b610e835760405162461bcd60e51b815260040180806020018281038252603a8152602001806133d2603a913960400191505060405180910390fd5b80610ec8576040805162461bcd60e51b815260206004820152601060248201526f10985cd948155492481a5b9d985b1a5960821b604482015290519081900360640190fd5b610ed4600d838361309b565b505050565b610eea610ee46123b1565b826123fd565b610f255760405162461bcd60e51b815260040180806020018281038252603181526020018061342d6031913960400191505060405180910390fd5b610ed48383836124a1565b610f3b610de66123b1565b610f765760405162461bcd60e51b81526004018080602001828103825260408152602001806133926040913960400191505060405180910390fd5b610e2f816124c0565b6000610f8a83611605565b8210610fc75760405162461bcd60e51b815260040180806020018281038252602b8152602001806131c2602b913960400191505060405180910390fd5b6001600160a01b0383166000908152600560205260409020805483908110610feb57fe5b9060005260206000200154905092915050565b6000611011600c8363ffffffff61250816565b92915050565b610ed483838360405180602001604052806000815250611bbc565b61103d610e436123b1565b6110785760405162461bcd60e51b815260040180806020018281038252603a8152602001806133d2603a913960400191505060405180910390fd5b8061108281612394565b6110c8576040805162461bcd60e51b8152602060048201526012602482015271151bdad95b881251081b9bdd081d985b1a5960721b604482015290519081900360640190fd5b6000828152600e60205260409020600f816110e28561256f565b60405160200180838054600181600116156101000203166002900480156111405780601f1061111e576101008083540402835291820191611140565b820191906000526020600020905b81548152906001019060200180831161112c575b505080602d60f81b81525060010182805190602001908083835b602083106111795780518252601f19909201916020918201910161115a565b6001836020036101000a038019825116818451168082178552505050505050905001925050506040516020818303038152906040526040518082805190602001908083835b602083106111dd5780518252601f1990920191602091820191016111be565b51815160209384036101000a600019018019909216911617905292019485525060405193849003019092206000905550610ed4905083612633565b6112286112236123b1565b612645565b565b600d805460408051602060026001851615610100026000190190941693909304601f810184900484028201840190925281815292918301828280156112b05780601f10611285576101008083540402835291602001916112b0565b820191906000526020600020905b81548152906001019060200180831161129357829003601f168201915b505050505081565b60006112c2610e32565b82106112ff5760405162461bcd60e51b815260040180806020018281038252602c81526020018061345e602c913960400191505060405180910390fd5b6007828154811061130c57fe5b90600052602060002001549050919050565b600061132b610e436123b1565b6113665760405162461bcd60e51b815260040180806020018281038252603a8152602001806133d2603a913960400191505060405180910390fd5b836113af576040805162461bcd60e51b8152602060048201526014602482015273141c9bd91d58dd0818dbd919481a5b9d985b1a5960621b604482015290519081900360640190fd5b816113f5576040805162461bcd60e51b815260206004820152601160248201527012541194c81a185cda081a5b9d985b1a59607a1b604482015290519081900360640190fd5b6040805160606020601f88018190040282018101835291810186815290918291908890889081908501838280828437600092019190915250505090825250604080516020601f8701819004810282018101909252858152918101919086908690819084018382808284376000920182905250939094525050898152600e6020908152604090912083518051919350611491928492910190613119565b5060208281015180516114aa9260018501920190613119565b509050506114b8868861268d565b86600f86866114c68b61256f565b60405160200180848480828437602d60f81b920191825250825160019091019060208401908083835b6020831061150e5780518252601f1990920191602091820191016114ef565b6001836020036101000a03801982511681845116808217855250505050505090500193505050506040516020818303038152906040526040518082805190602001908083835b602083106115735780518252601f199092019160209182019101611554565b51815160209384036101000a600019018019909216911617905292019485525060405193849003019092209290925550600198975050505050505050565b6000818152600160205260408120546001600160a01b0316806110115760405162461bcd60e51b81526004018080602001828103825260298152602001806132d16029913960400191505060405180910390fd5b60006001600160a01b03821661164c5760405162461bcd60e51b815260040180806020018281038252602a8152602001806132a7602a913960400191505060405180910390fd5b6001600160a01b0382166000908152600360205260409020611011906126ae565b611678610de66123b1565b6116b35760405162461bcd60e51b81526004018080602001828103825260408152602001806133926040913960400191505060405180910390fd5b610e2f816126b2565b60606116c7826126fa565b80548060200260200160405190810160405280929190818152602001828054801561171157602002820191906000526020600020905b8154815260200190600101908083116116fd575b50505050509050919050565b60608161172981612394565b61176f576040805162461bcd60e51b8152602060048201526012602482015271151bdad95b881251081b9bdd081d985b1a5960721b604482015290519081900360640190fd5b6000838152600e60205260409020806117878561256f565b60405160200180838054600181600116156101000203166002900480156117e55780601f106117c35761010080835404028352918201916117e5565b820191906000526020600020905b8154815290600101906020018083116117d1575b505080602d60f81b81525060010182805190602001908083835b6020831061181e5780518252601f1990920191602091820191016117ff565b6001836020036101000a0380198251168184511680821785525050505050509050019250505060405160208183030381529060405292505050919050565b60608161186881612394565b6118ae576040805162461bcd60e51b8152602060048201526012602482015271151bdad95b881251081b9bdd081d985b1a5960721b604482015290519081900360640190fd5b6000838152600e602090815260409182902080548351601f600260001961010060018616150201909316929092049182018490048402810184019094528084529092918391908301828280156119455780601f1061191a57610100808354040283529160200191611945565b820191906000526020600020905b81548152906001019060200180831161192857829003601f168201915b505050505092505050919050565b600a8054604080516020601f6002600019610100600188161502019095169490940493840181900481028201810190925282815260609390929091830182828015610c465780601f10610c1b57610100808354040283529160200191610c46565b6119bf610e436123b1565b6119fa5760405162461bcd60e51b815260040180806020018281038252603a8152602001806133d2603a913960400191505060405180910390fd5b82611a0481612394565b611a4a576040805162461bcd60e51b8152602060048201526012602482015271151bdad95b881251081b9bdd081d985b1a5960721b604482015290519081900360640190fd5b81611a94576040805162461bcd60e51b815260206004820152601560248201527413995dc812541194c81a185cda081a5b9d985b1a59605a1b604482015290519081900360640190fd5b6000848152600e60205260409020611ab090600101848461309b565b5050505050565b611abf6123b1565b6001600160a01b0316826001600160a01b03161415611b25576040805162461bcd60e51b815260206004820152601960248201527f4552433732313a20617070726f766520746f2063616c6c657200000000000000604482015290519081900360640190fd5b8060046000611b326123b1565b6001600160a01b03908116825260208083019390935260409182016000908120918716808252919093529120805460ff191692151592909217909155611b766123b1565b60408051841515815290516001600160a01b0392909216917f17307eab39ab6107e8899845ad3d59bd9653f200f220920489ca2b5937696c319181900360200190a35050565b611bcd611bc76123b1565b836123fd565b611c085760405162461bcd60e51b815260040180806020018281038252603181526020018061342d6031913960400191505060405180910390fd5b611c1484848484612714565b50505050565b6000611011600b8363ffffffff61250816565b606081611c3981612394565b611c7f576040805162461bcd60e51b8152602060048201526012602482015271151bdad95b881251081b9bdd081d985b1a5960721b604482015290519081900360640190fd5b600d600e60008581526020019081526020016000206001016040516020018083805460018160011615610100020316600290048015611cf55780601f10611cd3576101008083540402835291820191611cf5565b820191906000526020600020905b815481529060010190602001808311611ce1575b505082805460018160011615610100020316600290048015611d4e5780601f10611d2c576101008083540402835291820191611d4e565b820191906000526020600020905b815481529060010190602001808311611d3a575b505060408051601f198184030181529190529695505050505050565b606080606083611d7981612394565b611dbf576040805162461bcd60e51b8152602060048201526012602482015271151bdad95b881251081b9bdd081d985b1a5960721b604482015290519081900360640190fd5b6000858152600e602052604090208080611dd88861256f565b6040516020018083805460018160011615610100020316600290048015611e365780601f10611e14576101008083540402835291820191611e36565b820191906000526020600020905b815481529060010190602001808311611e22575b505080602d60f81b81525060010182805190602001908083835b60208310611e6f5780518252601f199092019160209182019101611e50565b6001836020036101000a03801982511681845116808217855250505050505090500192505050604051602081830303815290604052600d836001016040516020018083805460018160011615610100020316600290048015611f085780601f10611ee6576101008083540402835291820191611f08565b820191906000526020600020905b815481529060010190602001808311611ef4575b505082805460018160011615610100020316600290048015611f615780601f10611f3f576101008083540402835291820191611f61565b820191906000526020600020905b815481529060010190602001808311611f4d575b505060408051601f1981840301815287546020601f60026000196101006001861615020190931692909204918201819004810285018101909352808452909550919350869250830182828015611ff85780601f10611fcd57610100808354040283529160200191611ff8565b820191906000526020600020905b815481529060010190602001808311611fdb57829003601f168201915b5050505050925094509450945050509193909250565b6112286120196123b1565b6124c0565b60606000600f8484604051808383808284378083019250505092505050908152602001604051809103902054905061205581612394565b6120a6576040805162461bcd60e51b815260206004820152601e60248201527f546f6b656e206e6f7420666f756e6420666f722070726f647563742049440000604482015290519081900360640190fd5b600d600e6000838152602001908152602001600020600101604051602001808380546001816001161561010002031660029004801561211c5780601f106120fa57610100808354040283529182019161211c565b820191906000526020600020905b815481529060010190602001808311612108575b5050828054600181600116156101000203166002900480156121755780601f10612153576101008083540402835291820191612175565b820191906000526020600020905b815481529060010190602001808311612161575b505060408051601f19818403018152919052979650505050505050565b6001600160a01b03918216600090815260046020908152604080832093909416825291909152205460ff1690565b6000600f83836040518083838082843791909101948552505060405192839003602001909220549250505092915050565b6121fc610e436123b1565b6122375760405162461bcd60e51b815260040180806020018281038252603a8152602001806133d2603a913960400191505060405180910390fd5b8261224181612394565b612287576040805162461bcd60e51b8152602060048201526012602482015271151bdad95b881251081b9bdd081d985b1a5960721b604482015290519081900360640190fd5b6000848152600e602052604090206122a081858561309b565b5084600f85856122af8961256f565b60405160200180848480828437602d60f81b920191825250825160019091019060208401908083835b602083106122f75780518252601f1990920191602091820191016122d8565b6001836020036101000a03801982511681845116808217855250505050505090500193505050506040516020818303038152906040526040518082805190602001908083835b6020831061235c5780518252601f19909201916020918201910161233d565b51815160209384036101000a600019018019909216911617905292019485525060405193849003019092209290925550505050505050565b6000908152600160205260409020546001600160a01b0316151590565b3390565b6123c6600c8263ffffffff61276616565b6040516001600160a01b038216907fee1504a83b6d4a361f4c1dc78ab59bfa30d6a3b6612c403e86bb01ef2984295f90600090a250565b600061240882612394565b6124435760405162461bcd60e51b815260040180806020018281038252602c815260200180613243602c913960400191505060405180910390fd5b600061244e836115b1565b9050806001600160a01b0316846001600160a01b031614806124895750836001600160a01b031661247e84610c51565b6001600160a01b0316145b8061249957506124998185612192565b949350505050565b6124ac8383836127e7565b6124b6838261292b565b610ed48282612a19565b6124d1600c8263ffffffff612a5716565b6040516001600160a01b038216907f270d9b30cf5b0793bbfd54c9d5b94aeb49462b8148399000265144a8722da6b690600090a250565b60006001600160a01b03821661254f5760405162461bcd60e51b81526004018080602001828103825260228152602001806133476022913960400191505060405180910390fd5b506001600160a01b03166000908152602091909152604090205460ff1690565b60608161259457506040805180820190915260018152600360fc1b6020820152610bb5565b8160005b81156125ac57600101600a82049150612598565b6060816040519080825280601f01601f1916602001820160405280156125d9576020820181803883390190505b50859350905060001982015b831561262a57600a840660300160f81b8282806001900393508151811061260857fe5b60200101906001600160f81b031916908160001a905350600a840493506125e5565b50949350505050565b610e2f61263f826115b1565b82612abe565b612656600b8263ffffffff612a5716565b6040516001600160a01b038216907f0a8eb35e5ca14b3d6f28e4abf2f128dbab231a58b56e89beb5d636115001e16590600090a250565b6126978282612aea565b6126a18282612a19565b6126aa81612c1b565b5050565b5490565b6126c3600b8263ffffffff61276616565b6040516001600160a01b038216907f22380c05984257a1cb900161c713dd71d39e74820f1aea43bd3f1bdd2096129990600090a250565b6001600160a01b0316600090815260056020526040902090565b61271f8484846124a1565b61272b84848484612c5f565b611c145760405162461bcd60e51b81526004018080602001828103825260328152602001806131ed6032913960400191505060405180910390fd5b6127708282612508565b156127c2576040805162461bcd60e51b815260206004820152601f60248201527f526f6c65733a206163636f756e7420616c72656164792068617320726f6c6500604482015290519081900360640190fd5b6001600160a01b0316600090815260209190915260409020805460ff19166001179055565b826001600160a01b03166127fa826115b1565b6001600160a01b03161461283f5760405162461bcd60e51b81526004018080602001828103825260298152602001806133696029913960400191505060405180910390fd5b6001600160a01b0382166128845760405162461bcd60e51b815260040180806020018281038252602481526020018061321f6024913960400191505060405180910390fd5b61288d81612db6565b6001600160a01b03831660009081526003602052604090206128ae90612df1565b6001600160a01b03821660009081526003602052604090206128cf90612e08565b60008181526001602052604080822080546001600160a01b0319166001600160a01b0386811691821790925591518493918716917fddf252ad1be2c89b69c2b068fc378daa952ba7f163c4a11628f55a4df523b3ef91a4505050565b6001600160a01b03821660009081526005602052604081205461295590600163ffffffff612e1116565b6000838152600660205260409020549091508082146129f0576001600160a01b038416600090815260056020526040812080548490811061299257fe5b906000526020600020015490508060056000876001600160a01b03166001600160a01b0316815260200190815260200160002083815481106129d057fe5b600091825260208083209091019290925591825260069052604090208190555b6001600160a01b0384166000908152600560205260409020805490611ab0906000198301613187565b6001600160a01b0390911660009081526005602081815260408084208054868652600684529185208290559282526001810183559183529091200155565b612a618282612508565b612a9c5760405162461bcd60e51b81526004018080602001828103825260218152602001806132fa6021913960400191505060405180910390fd5b6001600160a01b0316600090815260209190915260409020805460ff19169055565b612ac88282612e5a565b612ad2828261292b565b6000818152600660205260408120556126aa81612f31565b6001600160a01b038216612b45576040805162461bcd60e51b815260206004820181905260248201527f4552433732313a206d696e7420746f20746865207a65726f2061646472657373604482015290519081900360640190fd5b612b4e81612394565b15612ba0576040805162461bcd60e51b815260206004820152601c60248201527f4552433732313a20746f6b656e20616c7265616479206d696e74656400000000604482015290519081900360640190fd5b600081815260016020908152604080832080546001600160a01b0319166001600160a01b038716908117909155835260039091529020612bdf90612e08565b60405181906001600160a01b038416906000907fddf252ad1be2c89b69c2b068fc378daa952ba7f163c4a11628f55a4df523b3ef908290a45050565b600780546000838152600860205260408120829055600182018355919091527fa66cc928b5edb82af9bd49922954155ab7b0942694bea4ce44661d9a8736c6880155565b6000612c73846001600160a01b0316612fcd565b612c7f57506001612499565b6000846001600160a01b031663150b7a02612c986123b1565b8887876040518563ffffffff1660e01b815260040180856001600160a01b03166001600160a01b03168152602001846001600160a01b03166001600160a01b0316815260200183815260200180602001828103825283818151815260200191508051906020019080838360005b83811015612d1d578181015183820152602001612d05565b50505050905090810190601f168015612d4a5780820380516001836020036101000a031916815260200191505b5095505050505050602060405180830381600087803b158015612d6c57600080fd5b505af1158015612d80573d6000803e3d6000fd5b505050506040513d6020811015612d9657600080fd5b50516001600160e01b031916630a85bd0160e11b14915050949350505050565b6000818152600260205260409020546001600160a01b031615610e2f57600090815260026020526040902080546001600160a01b0319169055565b8054612e0490600163ffffffff612e1116565b9055565b80546001019055565b6000612e5383836040518060400160405280601e81526020017f536166654d6174683a207375627472616374696f6e206f766572666c6f770000815250613004565b9392505050565b816001600160a01b0316612e6d826115b1565b6001600160a01b031614612eb25760405162461bcd60e51b815260040180806020018281038252602581526020018061348a6025913960400191505060405180910390fd5b612ebb81612db6565b6001600160a01b0382166000908152600360205260409020612edc90612df1565b60008181526001602052604080822080546001600160a01b0319169055518291906001600160a01b038516907fddf252ad1be2c89b69c2b068fc378daa952ba7f163c4a11628f55a4df523b3ef908390a45050565b600754600090612f4890600163ffffffff612e1116565b60008381526008602052604081205460078054939450909284908110612f6a57fe5b906000526020600020015490508060078381548110612f8557fe5b60009182526020808320909101929092558281526008909152604090208290556007805490612fb8906000198301613187565b50505060009182525060086020526040812055565b6000813f7fc5d2460186f7233c927e7db2dcc703c0e500b653ca82273b7bfad8045d85a47081158015906124995750141592915050565b600081848411156130935760405162461bcd60e51b81526004018080602001828103825283818151815260200191508051906020019080838360005b83811015613058578181015183820152602001613040565b50505050905090810190601f1680156130855780820380516001836020036101000a031916815260200191505b509250505060405180910390fd5b505050900390565b828054600181600116156101000203166002900490600052602060002090601f016020900481019282601f106130dc5782800160ff19823516178555613109565b82800160010185558215613109579182015b828111156131095782358255916020019190600101906130ee565b506131159291506131a7565b5090565b828054600181600116156101000203166002900490600052602060002090601f016020900481019282601f1061315a57805160ff1916838001178555613109565b82800160010185558215613109579182015b8281111561310957825182559160200191906001019061316c565b815481835581811115610ed457600083815260209020610ed49181019083015b610c4e91905b8082111561311557600081556001016131ad56fe455243373231456e756d657261626c653a206f776e657220696e646578206f7574206f6620626f756e64734552433732313a207472616e7366657220746f206e6f6e20455243373231526563656976657220696d706c656d656e7465724552433732313a207472616e7366657220746f20746865207a65726f20616464726573734552433732313a206f70657261746f7220717565727920666f72206e6f6e6578697374656e7420746f6b656e4552433732313a20617070726f76652063616c6c6572206973206e6f74206f776e6572206e6f7220617070726f76656420666f7220616c6c4552433732313a2062616c616e636520717565727920666f7220746865207a65726f20616464726573734552433732313a206f776e657220717565727920666f72206e6f6e6578697374656e7420746f6b656e526f6c65733a206163636f756e7420646f6573206e6f74206861766520726f6c654552433732313a20617070726f76656420717565727920666f72206e6f6e6578697374656e7420746f6b656e526f6c65733a206163636f756e7420697320746865207a65726f20616464726573734552433732313a207472616e73666572206f6620746f6b656e2074686174206973206e6f74206f776e57686974656c69737441646d696e526f6c653a2063616c6c657220646f6573206e6f742068617665207468652057686974656c69737441646d696e20726f6c6557686974656c6973746564526f6c653a2063616c6c657220646f6573206e6f742068617665207468652057686974656c697374656420726f6c654552433732313a20617070726f76616c20746f2063757272656e74206f776e65724552433732313a207472616e736665722063616c6c6572206973206e6f74206f776e6572206e6f7220617070726f766564455243373231456e756d657261626c653a20676c6f62616c20696e646578206f7574206f6620626f756e64734552433732313a206275726e206f6620746f6b656e2074686174206973206e6f74206f776ea265627a7a72315820ff9916003eec9f5b29fa70fcb709d121a58a4b1746a2cdc31fc0c3b49fda189564736f6c634300050c0032526f6c65733a206163636f756e7420697320746865207a65726f206164647265737357686974656c69737441646d696e526f6c653a2063616c6c657220646f6573206e6f742068617665207468652057686974656c69737441646d696e20726f6c65",
  "source": "pragma solidity ^0.5.12;\n\nimport \"@openzeppelin/contracts/math/SafeMath.sol\";\nimport \"@openzeppelin/contracts/access/roles/WhitelistedRole.sol\";\nimport \"@openzeppelin/contracts/drafts/Strings.sol\";\n\nimport \"../interfaces/erc721/CustomERC721Full.sol\";\nimport \"../interfaces/ITokenlandiaTokenCreator.sol\";\n\ncontract Tokenlandia is CustomERC721Full, ITokenlandiaTokenCreator, WhitelistedRole {\n    using SafeMath for uint256;\n\n    string public tokenBaseURI = \"\";\n\n    struct Token {\n        string productCode;\n        string ipfsHash;\n    }\n\n    mapping(uint256 => Token) internal tokens;\n\n    // Reverse mapping so we can lookup the token from the product ID\n    mapping(string => uint256) internal productIdToTokenId;\n\n    modifier onlyWhenTokenExists(uint256 _tokenId) {\n        require(_exists(_tokenId), \"Token ID not valid\");\n        _;\n    }\n\n    constructor (string memory _tokenBaseURI) public CustomERC721Full(\"TokenLandia NFT\", \"TLN\") {\n        super.addWhitelisted(_msgSender());\n        tokenBaseURI = _tokenBaseURI;\n    }\n\n    /**\n     * Mint a token to a specific recipient\n     * @dev Only callable from whitelisted address\n     * @param _tokenId uint256 id of the token\n     * @param _recipient address of the recipient\n     * @param _productCode string the product code identified - [productCode-tokenId] provides a uniqueness guarantee\n     * @param _ipfsHash string the IPFS hash\n     **/\n    function mintToken(\n        uint256 _tokenId,\n        address _recipient,\n        string calldata _productCode,\n        string calldata _ipfsHash\n    ) external onlyWhitelisted returns (bool success) {\n        require(bytes(_productCode).length > 0, \"Product code invalid\");\n        require(bytes(_ipfsHash).length > 0, \"IPFS hash invalid\");\n\n        // Create Token metadata\n        tokens[_tokenId] = Token({\n            productCode : _productCode,\n            ipfsHash : _ipfsHash\n            });\n\n        // Mint token\n        _mint(_recipient, _tokenId);\n\n        // Create reverse lookup from productId to tokenId\n        productIdToTokenId[string(abi.encodePacked(_productCode, \"-\", Strings.fromUint256(_tokenId)))] = _tokenId;\n\n        return true;\n    }\n\n    function ipfsUrlForProductId(string calldata productId)\n    external\n    view returns (\n        string memory _ipfsUrl\n    ) {\n        uint256 tokenId = productIdToTokenId[productId];\n        require(_exists(tokenId), \"Token not found for product ID\");\n        return string(abi.encodePacked(tokenBaseURI, tokens[tokenId].ipfsHash));\n    }\n\n    function attributes(uint256 _tokenId)\n    external\n    onlyWhenTokenExists(_tokenId) view returns (\n        string memory _productCode,\n        string memory _productId,\n        string memory _ipfsUrl\n    ) {\n        Token storage token = tokens[_tokenId];\n        return (\n        token.productCode,\n        string(abi.encodePacked(token.productCode, \"-\", Strings.fromUint256(_tokenId))),\n        string(abi.encodePacked(tokenBaseURI, token.ipfsHash))\n        );\n    }\n\n    function productCode(uint256 _tokenId)\n    external\n    onlyWhenTokenExists(_tokenId) view returns (string memory _productCode) {\n        Token storage token = tokens[_tokenId];\n        return token.productCode;\n    }\n\n    function productId(uint256 _tokenId)\n    external\n    onlyWhenTokenExists(_tokenId) view returns (string memory _productId) {\n        Token storage token = tokens[_tokenId];\n        return string(abi.encodePacked(token.productCode, \"-\", Strings.fromUint256(_tokenId)));\n    }\n\n    function tokenIdForProductId(string calldata _productId)\n    external\n    view returns (uint256 _tokenId) {\n        return productIdToTokenId[_productId];\n    }\n\n    function tokenURI(uint256 _tokenId)\n    external\n    onlyWhenTokenExists(_tokenId) view returns (string memory) {\n        return string(abi.encodePacked(tokenBaseURI, tokens[_tokenId].ipfsHash));\n    }\n\n    function tokensOfOwner(address owner)\n    external\n    view returns (uint256[] memory) {\n        return _tokensOfOwner(owner);\n    }\n\n    function updateProductCode(uint256 _tokenId, string calldata _productCode)\n    external\n    onlyWhitelisted onlyWhenTokenExists(_tokenId) {\n        Token storage token = tokens[_tokenId];\n        token.productCode = _productCode;\n\n        productIdToTokenId[string(abi.encodePacked(_productCode, \"-\", Strings.fromUint256(_tokenId)))] = _tokenId;\n    }\n\n    /**\n     * @dev Burns a specific token.\n     * @dev Only callable from whitelisted address\n     * @param _tokenId uint256 id of the token to be burned.\n     */\n    function burn(uint256 _tokenId)\n    public\n    onlyWhitelisted onlyWhenTokenExists(_tokenId) {\n        // Clean up product ID mapping\n        Token storage token = tokens[_tokenId];\n        delete productIdToTokenId[string(abi.encodePacked(token.productCode, \"-\", Strings.fromUint256(_tokenId)))];\n\n        _burn(_tokenId);\n    }\n\n    function updateIpfsHash(uint256 _tokenId, string calldata _newIpfsHash)\n    external\n    onlyWhitelisted onlyWhenTokenExists(_tokenId) {\n        require(bytes(_newIpfsHash).length != 0, \"New IPFS hash invalid\");\n        tokens[_tokenId].ipfsHash = _newIpfsHash;\n    }\n\n    function updateTokenBaseURI(string calldata _newBaseURI)\n    external\n    onlyWhitelisted {\n        require(bytes(_newBaseURI).length != 0, \"Base URI invalid\");\n        tokenBaseURI = _newBaseURI;\n    }\n}\n",
  "sourcePath": "/Users/jamesmorgan/Dropbox/workspace-blockrocket/tokenlandia/tokenlandia-contracts/contracts/token/Tokenlandia.sol",
  "compiler": {
    "name": "solc",
    "version": "0.5.12+commit.7709ece9.Emscripten.clang"
  },
  "schemaVersion": "3.0.16",
  "updatedAt": "2019-11-11T11:23:52.998Z",
  "devdoc": {
    "methods": {
      "approve(address,uint256)": {
        "details": "Approves another address to transfer the given token ID The zero address indicates there is no approved address. There can only be one approved address per token at a given time. Can only be called by the token owner or an approved operator.",
        "params": {
          "to": "address to be approved for the given token ID",
          "tokenId": "uint256 ID of the token to be approved"
        }
      },
      "balanceOf(address)": {
        "details": "Gets the balance of the specified address.",
        "params": {
          "owner": "address to query the balance of"
        },
        "return": "uint256 representing the amount owned by the passed address"
      },
      "burn(uint256)": {
        "details": "Burns a specific token.Only callable from whitelisted address",
        "params": {
          "_tokenId": "uint256 id of the token to be burned."
        }
      },
      "getApproved(uint256)": {
        "details": "Gets the approved address for a token ID, or zero if no address set Reverts if the token ID does not exist.",
        "params": {
          "tokenId": "uint256 ID of the token to query the approval of"
        },
        "return": "address currently approved for the given token ID"
      },
      "isApprovedForAll(address,address)": {
        "details": "Tells whether an operator is approved by a given owner.",
        "params": {
          "operator": "operator address which you want to query the approval of",
          "owner": "owner address which you want to query the approval of"
        },
        "return": "bool whether the given operator is approved by the given owner"
      },
      "mintToken(uint256,address,string,string)": {
        "details": "Only callable from whitelisted address",
        "params": {
          "_ipfsHash": "string the IPFS hash*",
          "_productCode": "string the product code identified - [productCode-tokenId] provides a uniqueness guarantee",
          "_recipient": "address of the recipient",
          "_tokenId": "uint256 id of the token"
        }
      },
      "name()": {
        "details": "Gets the token name.",
        "return": "string representing the token name"
      },
      "ownerOf(uint256)": {
        "details": "Gets the owner of the specified token ID.",
        "params": {
          "tokenId": "uint256 ID of the token to query the owner of"
        },
        "return": "address currently marked as the owner of the given token ID"
      },
      "safeTransferFrom(address,address,uint256)": {
        "details": "Safely transfers the ownership of a given token ID to another address If the target address is a contract, it must implement {IERC721Receiver-onERC721Received}, which is called upon a safe transfer, and return the magic value `bytes4(keccak256(\"onERC721Received(address,address,uint256,bytes)\"))`; otherwise, the transfer is reverted. Requires the msg.sender to be the owner, approved, or operator",
        "params": {
          "from": "current owner of the token",
          "to": "address to receive the ownership of the given token ID",
          "tokenId": "uint256 ID of the token to be transferred"
        }
      },
      "safeTransferFrom(address,address,uint256,bytes)": {
        "details": "Safely transfers the ownership of a given token ID to another address If the target address is a contract, it must implement {IERC721Receiver-onERC721Received}, which is called upon a safe transfer, and return the magic value `bytes4(keccak256(\"onERC721Received(address,address,uint256,bytes)\"))`; otherwise, the transfer is reverted. Requires the _msgSender() to be the owner, approved, or operator",
        "params": {
          "_data": "bytes data to send along with a safe transfer check",
          "from": "current owner of the token",
          "to": "address to receive the ownership of the given token ID",
          "tokenId": "uint256 ID of the token to be transferred"
        }
      },
      "setApprovalForAll(address,bool)": {
        "details": "Sets or unsets the approval of a given operator An operator is allowed to transfer all tokens of the sender on their behalf.",
        "params": {
          "approved": "representing the status of the approval to be set",
          "to": "operator address to set the approval"
        }
      },
      "supportsInterface(bytes4)": {
        "details": "See {IERC165-supportsInterface}.     * Time complexity O(1), guaranteed to always use less than 30 000 gas."
      },
      "symbol()": {
        "details": "Gets the token symbol.",
        "return": "string representing the token symbol"
      },
      "tokenByIndex(uint256)": {
        "details": "Gets the token ID at a given index of all the tokens in this contract Reverts if the index is greater or equal to the total number of tokens.",
        "params": {
          "index": "uint256 representing the index to be accessed of the tokens list"
        },
        "return": "uint256 token ID at the given index of the tokens list"
      },
      "tokenOfOwnerByIndex(address,uint256)": {
        "details": "Gets the token ID at a given index of the tokens list of the requested owner.",
        "params": {
          "index": "uint256 representing the index to be accessed of the requested tokens list",
          "owner": "address owning the tokens list to be accessed"
        },
        "return": "uint256 token ID at the given index of the tokens list owned by the requested address"
      },
      "totalSupply()": {
        "details": "Gets the total amount of tokens stored by the contract.",
        "return": "uint256 representing the total amount of tokens"
      },
      "transferFrom(address,address,uint256)": {
        "details": "Transfers the ownership of a given token ID to another address. Usage of this method is discouraged, use {safeTransferFrom} whenever possible. Requires the msg.sender to be the owner, approved, or operator.",
        "params": {
          "from": "current owner of the token",
          "to": "address to receive the ownership of the given token ID",
          "tokenId": "uint256 ID of the token to be transferred"
        }
      }
    }
  },
  "userdoc": {
    "methods": {
      "mintToken(uint256,address,string,string)": {
        "notice": "Mint a token to a specific recipient"
      }
    }
  }
}