{
  "contractName": "Tokenlandia",
  "abi": [
    {
      "constant": true,
      "inputs": [
        {
          "name": "interfaceId",
          "type": "bytes4"
        }
      ],
      "name": "supportsInterface",
      "outputs": [
        {
          "name": "",
          "type": "bool"
        }
      ],
      "payable": false,
      "stateMutability": "view",
      "type": "function"
    },
    {
      "constant": true,
      "inputs": [],
      "name": "name",
      "outputs": [
        {
          "name": "",
          "type": "string"
        }
      ],
      "payable": false,
      "stateMutability": "view",
      "type": "function"
    },
    {
      "constant": true,
      "inputs": [
        {
          "name": "tokenId",
          "type": "uint256"
        }
      ],
      "name": "getApproved",
      "outputs": [
        {
          "name": "",
          "type": "address"
        }
      ],
      "payable": false,
      "stateMutability": "view",
      "type": "function"
    },
    {
      "constant": false,
      "inputs": [
        {
          "name": "to",
          "type": "address"
        },
        {
          "name": "tokenId",
          "type": "uint256"
        }
      ],
      "name": "approve",
      "outputs": [],
      "payable": false,
      "stateMutability": "nonpayable",
      "type": "function"
    },
    {
      "constant": false,
      "inputs": [
        {
          "name": "account",
          "type": "address"
        }
      ],
      "name": "addWhitelisted",
      "outputs": [],
      "payable": false,
      "stateMutability": "nonpayable",
      "type": "function"
    },
    {
      "constant": true,
      "inputs": [],
      "name": "totalSupply",
      "outputs": [
        {
          "name": "",
          "type": "uint256"
        }
      ],
      "payable": false,
      "stateMutability": "view",
      "type": "function"
    },
    {
      "constant": false,
      "inputs": [
        {
          "name": "from",
          "type": "address"
        },
        {
          "name": "to",
          "type": "address"
        },
        {
          "name": "tokenId",
          "type": "uint256"
        }
      ],
      "name": "transferFrom",
      "outputs": [],
      "payable": false,
      "stateMutability": "nonpayable",
      "type": "function"
    },
    {
      "constant": false,
      "inputs": [
        {
          "name": "account",
          "type": "address"
        }
      ],
      "name": "removeWhitelisted",
      "outputs": [],
      "payable": false,
      "stateMutability": "nonpayable",
      "type": "function"
    },
    {
      "constant": true,
      "inputs": [
        {
          "name": "owner",
          "type": "address"
        },
        {
          "name": "index",
          "type": "uint256"
        }
      ],
      "name": "tokenOfOwnerByIndex",
      "outputs": [
        {
          "name": "",
          "type": "uint256"
        }
      ],
      "payable": false,
      "stateMutability": "view",
      "type": "function"
    },
    {
      "constant": true,
      "inputs": [
        {
          "name": "account",
          "type": "address"
        }
      ],
      "name": "isWhitelisted",
      "outputs": [
        {
          "name": "",
          "type": "bool"
        }
      ],
      "payable": false,
      "stateMutability": "view",
      "type": "function"
    },
    {
      "constant": false,
      "inputs": [
        {
          "name": "from",
          "type": "address"
        },
        {
          "name": "to",
          "type": "address"
        },
        {
          "name": "tokenId",
          "type": "uint256"
        }
      ],
      "name": "safeTransferFrom",
      "outputs": [],
      "payable": false,
      "stateMutability": "nonpayable",
      "type": "function"
    },
    {
      "constant": false,
      "inputs": [],
      "name": "renounceWhitelistAdmin",
      "outputs": [],
      "payable": false,
      "stateMutability": "nonpayable",
      "type": "function"
    },
    {
      "constant": true,
      "inputs": [],
      "name": "tokenBaseURI",
      "outputs": [
        {
          "name": "",
          "type": "string"
        }
      ],
      "payable": false,
      "stateMutability": "view",
      "type": "function"
    },
    {
      "constant": true,
      "inputs": [
        {
          "name": "index",
          "type": "uint256"
        }
      ],
      "name": "tokenByIndex",
      "outputs": [
        {
          "name": "",
          "type": "uint256"
        }
      ],
      "payable": false,
      "stateMutability": "view",
      "type": "function"
    },
    {
      "constant": true,
      "inputs": [
        {
          "name": "tokenId",
          "type": "uint256"
        }
      ],
      "name": "ownerOf",
      "outputs": [
        {
          "name": "",
          "type": "address"
        }
      ],
      "payable": false,
      "stateMutability": "view",
      "type": "function"
    },
    {
      "constant": true,
      "inputs": [
        {
          "name": "owner",
          "type": "address"
        }
      ],
      "name": "balanceOf",
      "outputs": [
        {
          "name": "",
          "type": "uint256"
        }
      ],
      "payable": false,
      "stateMutability": "view",
      "type": "function"
    },
    {
      "constant": false,
      "inputs": [
        {
          "name": "account",
          "type": "address"
        }
      ],
      "name": "addWhitelistAdmin",
      "outputs": [],
      "payable": false,
      "stateMutability": "nonpayable",
      "type": "function"
    },
    {
      "constant": true,
      "inputs": [],
      "name": "symbol",
      "outputs": [
        {
          "name": "",
          "type": "string"
        }
      ],
      "payable": false,
      "stateMutability": "view",
      "type": "function"
    },
    {
      "constant": false,
      "inputs": [
        {
          "name": "to",
          "type": "address"
        },
        {
          "name": "approved",
          "type": "bool"
        }
      ],
      "name": "setApprovalForAll",
      "outputs": [],
      "payable": false,
      "stateMutability": "nonpayable",
      "type": "function"
    },
    {
      "constant": false,
      "inputs": [
        {
          "name": "from",
          "type": "address"
        },
        {
          "name": "to",
          "type": "address"
        },
        {
          "name": "tokenId",
          "type": "uint256"
        },
        {
          "name": "_data",
          "type": "bytes"
        }
      ],
      "name": "safeTransferFrom",
      "outputs": [],
      "payable": false,
      "stateMutability": "nonpayable",
      "type": "function"
    },
    {
      "constant": true,
      "inputs": [
        {
          "name": "account",
          "type": "address"
        }
      ],
      "name": "isWhitelistAdmin",
      "outputs": [
        {
          "name": "",
          "type": "bool"
        }
      ],
      "payable": false,
      "stateMutability": "view",
      "type": "function"
    },
    {
      "constant": false,
      "inputs": [],
      "name": "renounceWhitelisted",
      "outputs": [],
      "payable": false,
      "stateMutability": "nonpayable",
      "type": "function"
    },
    {
      "constant": true,
      "inputs": [
        {
          "name": "owner",
          "type": "address"
        },
        {
          "name": "operator",
          "type": "address"
        }
      ],
      "name": "isApprovedForAll",
      "outputs": [
        {
          "name": "",
          "type": "bool"
        }
      ],
      "payable": false,
      "stateMutability": "view",
      "type": "function"
    },
    {
      "inputs": [
        {
          "name": "_tokenBaseURI",
          "type": "string"
        }
      ],
      "payable": false,
      "stateMutability": "nonpayable",
      "type": "constructor"
    },
    {
      "anonymous": false,
      "inputs": [
        {
          "indexed": true,
          "name": "account",
          "type": "address"
        }
      ],
      "name": "WhitelistedAdded",
      "type": "event"
    },
    {
      "anonymous": false,
      "inputs": [
        {
          "indexed": true,
          "name": "account",
          "type": "address"
        }
      ],
      "name": "WhitelistedRemoved",
      "type": "event"
    },
    {
      "anonymous": false,
      "inputs": [
        {
          "indexed": true,
          "name": "account",
          "type": "address"
        }
      ],
      "name": "WhitelistAdminAdded",
      "type": "event"
    },
    {
      "anonymous": false,
      "inputs": [
        {
          "indexed": true,
          "name": "account",
          "type": "address"
        }
      ],
      "name": "WhitelistAdminRemoved",
      "type": "event"
    },
    {
      "anonymous": false,
      "inputs": [
        {
          "indexed": true,
          "name": "from",
          "type": "address"
        },
        {
          "indexed": true,
          "name": "to",
          "type": "address"
        },
        {
          "indexed": true,
          "name": "tokenId",
          "type": "uint256"
        }
      ],
      "name": "Transfer",
      "type": "event"
    },
    {
      "anonymous": false,
      "inputs": [
        {
          "indexed": true,
          "name": "owner",
          "type": "address"
        },
        {
          "indexed": true,
          "name": "approved",
          "type": "address"
        },
        {
          "indexed": true,
          "name": "tokenId",
          "type": "uint256"
        }
      ],
      "name": "Approval",
      "type": "event"
    },
    {
      "anonymous": false,
      "inputs": [
        {
          "indexed": true,
          "name": "owner",
          "type": "address"
        },
        {
          "indexed": true,
          "name": "operator",
          "type": "address"
        },
        {
          "indexed": false,
          "name": "approved",
          "type": "bool"
        }
      ],
      "name": "ApprovalForAll",
      "type": "event"
    },
    {
      "constant": false,
      "inputs": [
        {
          "name": "_tokenId",
          "type": "uint256"
        },
        {
          "name": "_recipient",
          "type": "address"
        },
        {
          "name": "_productCode",
          "type": "string"
        },
        {
          "name": "_ipfsHash",
          "type": "string"
        }
      ],
      "name": "mintToken",
      "outputs": [
        {
          "name": "success",
          "type": "bool"
        }
      ],
      "payable": false,
      "stateMutability": "nonpayable",
      "type": "function"
    },
    {
      "constant": true,
      "inputs": [
        {
          "name": "productId",
          "type": "string"
        }
      ],
      "name": "ipfsUrlForProductId",
      "outputs": [
        {
          "name": "_ipfsUrl",
          "type": "string"
        }
      ],
      "payable": false,
      "stateMutability": "view",
      "type": "function"
    },
    {
      "constant": true,
      "inputs": [
        {
          "name": "_tokenId",
          "type": "uint256"
        }
      ],
      "name": "attributes",
      "outputs": [
        {
          "name": "_productCode",
          "type": "string"
        },
        {
          "name": "_productId",
          "type": "string"
        },
        {
          "name": "_ipfsUrl",
          "type": "string"
        }
      ],
      "payable": false,
      "stateMutability": "view",
      "type": "function"
    },
    {
      "constant": true,
      "inputs": [
        {
          "name": "_tokenId",
          "type": "uint256"
        }
      ],
      "name": "productCode",
      "outputs": [
        {
          "name": "_productCode",
          "type": "string"
        }
      ],
      "payable": false,
      "stateMutability": "view",
      "type": "function"
    },
    {
      "constant": true,
      "inputs": [
        {
          "name": "_tokenId",
          "type": "uint256"
        }
      ],
      "name": "productId",
      "outputs": [
        {
          "name": "_productId",
          "type": "string"
        }
      ],
      "payable": false,
      "stateMutability": "view",
      "type": "function"
    },
    {
      "constant": true,
      "inputs": [
        {
          "name": "_productId",
          "type": "string"
        }
      ],
      "name": "tokenIdForProductId",
      "outputs": [
        {
          "name": "_tokenId",
          "type": "uint256"
        }
      ],
      "payable": false,
      "stateMutability": "view",
      "type": "function"
    },
    {
      "constant": true,
      "inputs": [
        {
          "name": "_tokenId",
          "type": "uint256"
        }
      ],
      "name": "tokenURI",
      "outputs": [
        {
          "name": "",
          "type": "string"
        }
      ],
      "payable": false,
      "stateMutability": "view",
      "type": "function"
    },
    {
      "constant": true,
      "inputs": [
        {
          "name": "owner",
          "type": "address"
        }
      ],
      "name": "tokensOfOwner",
      "outputs": [
        {
          "name": "",
          "type": "uint256[]"
        }
      ],
      "payable": false,
      "stateMutability": "view",
      "type": "function"
    },
    {
      "constant": false,
      "inputs": [
        {
          "name": "_tokenId",
          "type": "uint256"
        },
        {
          "name": "_productCode",
          "type": "string"
        }
      ],
      "name": "updateProductCode",
      "outputs": [],
      "payable": false,
      "stateMutability": "nonpayable",
      "type": "function"
    },
    {
      "constant": false,
      "inputs": [
        {
          "name": "tokenId",
          "type": "uint256"
        }
      ],
      "name": "burn",
      "outputs": [],
      "payable": false,
      "stateMutability": "nonpayable",
      "type": "function"
    },
    {
      "constant": false,
      "inputs": [
        {
          "name": "_tokenId",
          "type": "uint256"
        },
        {
          "name": "_newIpfsHash",
          "type": "string"
        }
      ],
      "name": "updateIpfsHash",
      "outputs": [],
      "payable": false,
      "stateMutability": "nonpayable",
      "type": "function"
    },
    {
      "constant": false,
      "inputs": [
        {
          "name": "_newBaseURI",
          "type": "string"
        }
      ],
      "name": "updateTokenBaseURI",
      "outputs": [],
      "payable": false,
      "stateMutability": "nonpayable",
      "type": "function"
    }
  ],
  "bytecode": "0x60a06040819052600060808190526200001b91600d9162000617565b503480156200002957600080fd5b5060405162003e4638038062003e46833981018060405260208110156200004f57600080fd5b8101908080516401000000008111156200006857600080fd5b820160208101848111156200007c57600080fd5b81516401000000008111828201871017156200009757600080fd5b5050604080518082018252600f81527f546f6b656e4c616e646961204e465400000000000000000000000000000000006020808301919091528251808401909352600383527f544c4e000000000000000000000000000000000000000000000000000000000090830152919450909250905081816200013f7f01ffc9a7000000000000000000000000000000000000000000000000000000006401000000006200025b810204565b620001737f80ac58cd000000000000000000000000000000000000000000000000000000006401000000006200025b810204565b620001a77f780e9d63000000000000000000000000000000000000000000000000000000006401000000006200025b810204565b8151620001bc90600990602085019062000617565b508051620001d290600a90602084019062000617565b50620002077f5b5e139f000000000000000000000000000000000000000000000000000000006401000000006200025b810204565b5050505062000225336200032a640100000000026401000000009004565b6200023e336401000000006200102e6200037c82021704565b80516200025390600d90602084019062000617565b5050620006bc565b7fffffffff000000000000000000000000000000000000000000000000000000008082161415620002ed57604080517f08c379a000000000000000000000000000000000000000000000000000000000815260206004820152601c60248201527f4552433136353a20696e76616c696420696e7465726661636520696400000000604482015290519081900360640190fd5b7fffffffff00000000000000000000000000000000000000000000000000000000166000908152602081905260409020805460ff19166001179055565b62000345600b8264010000000062002d576200043b82021704565b604051600160a060020a038216907f22380c05984257a1cb900161c713dd71d39e74820f1aea43bd3f1bdd2096129990600090a250565b6200039033640100000000620004e2810204565b15156200042457604080517f08c379a000000000000000000000000000000000000000000000000000000000815260206004820152602481018290527f57686974656c69737441646d696e526f6c653a2063616c6c657220646f65732060448201527f6e6f742068617665207468652057686974656c69737441646d696e20726f6c65606482015290519081900360840190fd5b620004388164010000000062000505810204565b50565b62000450828264010000000062000557810204565b15620004bd57604080517f08c379a000000000000000000000000000000000000000000000000000000000815260206004820152601f60248201527f526f6c65733a206163636f756e7420616c72656164792068617320726f6c6500604482015290519081900360640190fd5b600160a060020a0316600090815260209190915260409020805460ff19166001179055565b6000620004ff600b83640100000000620028156200055782021704565b92915050565b62000520600c8264010000000062002d576200043b82021704565b604051600160a060020a038216907fee1504a83b6d4a361f4c1dc78ab59bfa30d6a3b6612c403e86bb01ef2984295f90600090a250565b6000600160a060020a0382161515620005f757604080517f08c379a000000000000000000000000000000000000000000000000000000000815260206004820152602260248201527f526f6c65733a206163636f756e7420697320746865207a65726f20616464726560448201527f7373000000000000000000000000000000000000000000000000000000000000606482015290519081900360840190fd5b50600160a060020a03166000908152602091909152604090205460ff1690565b828054600181600116156101000203166002900490600052602060002090601f016020900481019282601f106200065a57805160ff19168380011785556200068a565b828001600101855582156200068a579182015b828111156200068a5782518255916020019190600101906200066d565b50620006989291506200069c565b5090565b620006b991905b80821115620006985760008155600101620006a3565b90565b61377a80620006cc6000396000f3fe6080604052600436106101b65763ffffffff7c010000000000000000000000000000000000000000000000000000000060003504166301ffc9a781146101bb57806306fdde0314610218578063081812fc146102a2578063095ea7b3146102e857806310154bad1461032357806318160ddd146103565780632295ee5b1461037d57806323b872dd146103fa578063291d95491461043d5780632f745c59146104705780633af32abf146104a957806342842e0e146104dc57806342966c681461051f5780634c5a628c146105495780634e99b8001461055e5780634f6ccce7146105735780636289fa611461059d5780636352211e1461068157806370a08231146106ab5780637362d9c8146106de5780638462151c146107115780638b174b1b146107945780638ed2be82146107be57806395d89b41146107e85780639611c051146107fd578063a22cb46514610881578063b88d4fde146108bc578063bb5f747b1461098f578063c87b56dd146109c2578063d05dcc6a146109ec578063d6cd947314610b5a578063d940a7ea14610b6f578063e985e9c514610bec578063ead25d1514610c27578063f1e95a3514610ca4575b600080fd5b3480156101c757600080fd5b50610204600480360360208110156101de57600080fd5b50357bffffffffffffffffffffffffffffffffffffffffffffffffffffffff1916610d28565b604080519115158252519081900360200190f35b34801561022457600080fd5b5061022d610d5c565b6040805160208082528351818301528351919283929083019185019080838360005b8381101561026757818101518382015260200161024f565b50505050905090810190601f1680156102945780820380516001836020036101000a031916815260200191505b509250505060405180910390f35b3480156102ae57600080fd5b506102cc600480360360208110156102c557600080fd5b5035610df3565b60408051600160a060020a039092168252519081900360200190f35b3480156102f457600080fd5b506103216004803603604081101561030b57600080fd5b50600160a060020a038135169060200135610e96565b005b34801561032f57600080fd5b506103216004803603602081101561034657600080fd5b5035600160a060020a031661102e565b34801561036257600080fd5b5061036b6110bf565b60408051918252519081900360200190f35b34801561038957600080fd5b50610321600480360360208110156103a057600080fd5b8101906020810181356401000000008111156103bb57600080fd5b8201836020820111156103cd57600080fd5b803590602001918460018302840111640100000000831117156103ef57600080fd5b5090925090506110c5565b34801561040657600080fd5b506103216004803603606081101561041d57600080fd5b50600160a060020a0381358116916020810135909116906040013561118e565b34801561044957600080fd5b506103216004803603602081101561046057600080fd5b5035600160a060020a031661121f565b34801561047c57600080fd5b5061036b6004803603604081101561049357600080fd5b50600160a060020a0381351690602001356112ad565b3480156104b557600080fd5b50610204600480360360208110156104cc57600080fd5b5035600160a060020a031661136b565b3480156104e857600080fd5b50610321600480360360608110156104ff57600080fd5b50600160a060020a03813581169160208101359091169060400135611384565b34801561052b57600080fd5b506103216004803603602081101561054257600080fd5b50356113a0565b34801561055557600080fd5b5061032161146a565b34801561056a57600080fd5b5061022d611475565b34801561057f57600080fd5b5061036b6004803603602081101561059657600080fd5b5035611503565b3480156105a957600080fd5b50610204600480360360808110156105c057600080fd5b813591600160a060020a03602082013516918101906060810160408201356401000000008111156105f057600080fd5b82018360208201111561060257600080fd5b8035906020019184600183028401116401000000008311171561062457600080fd5b91939092909160208101903564010000000081111561064257600080fd5b82018360208201111561065457600080fd5b8035906020019184600183028401116401000000008311171561067657600080fd5b5090925090506115a9565b34801561068d57600080fd5b506102cc600480360360208110156106a457600080fd5b503561185e565b3480156106b757600080fd5b5061036b600480360360208110156106ce57600080fd5b5035600160a060020a03166118f3565b3480156106ea57600080fd5b506103216004803603602081101561070157600080fd5b5035600160a060020a031661199c565b34801561071d57600080fd5b506107446004803603602081101561073457600080fd5b5035600160a060020a0316611a2a565b60408051602080825283518183015283519192839290830191858101910280838360005b83811015610780578181015183820152602001610768565b505050509050019250505060405180910390f35b3480156107a057600080fd5b5061022d600480360360208110156107b757600080fd5b5035611a8b565b3480156107ca57600080fd5b5061022d600480360360208110156107e157600080fd5b5035611bbd565b3480156107f457600080fd5b5061022d611cb2565b34801561080957600080fd5b506103216004803603604081101561082057600080fd5b8135919081019060408101602082013564010000000081111561084257600080fd5b82018360208201111561085457600080fd5b8035906020019184600183028401116401000000008311171561087657600080fd5b509092509050611d13565b34801561088d57600080fd5b50610321600480360360408110156108a457600080fd5b50600160a060020a0381351690602001351515611e3c565b3480156108c857600080fd5b50610321600480360360808110156108df57600080fd5b600160a060020a0382358116926020810135909116916040820135919081019060808101606082013564010000000081111561091a57600080fd5b82018360208201111561092c57600080fd5b8035906020019184600183028401116401000000008311171561094e57600080fd5b91908080601f016020809104026020016040519081016040528093929190818152602001838380828437600092019190915250929550611f0b945050505050565b34801561099b57600080fd5b50610204600480360360208110156109b257600080fd5b5035600160a060020a0316611fa4565b3480156109ce57600080fd5b5061022d600480360360208110156109e557600080fd5b5035611fb7565b3480156109f857600080fd5b50610a1660048036036020811015610a0f57600080fd5b503561215c565b60405180806020018060200180602001848103845287818151815260200191508051906020019080838360005b83811015610a5b578181015183820152602001610a43565b50505050905090810190601f168015610a885780820380516001836020036101000a031916815260200191505b50848103835286518152865160209182019188019080838360005b83811015610abb578181015183820152602001610aa3565b50505050905090810190601f168015610ae85780820380516001836020036101000a031916815260200191505b50848103825285518152855160209182019187019080838360005b83811015610b1b578181015183820152602001610b03565b50505050905090810190601f168015610b485780820380516001836020036101000a031916815260200191505b50965050505050505060405180910390f35b348015610b6657600080fd5b50610321612353565b348015610b7b57600080fd5b5061022d60048036036020811015610b9257600080fd5b810190602081018135640100000000811115610bad57600080fd5b820183602082011115610bbf57600080fd5b80359060200191846001830284011164010000000083111715610be157600080fd5b50909250905061235c565b348015610bf857600080fd5b5061020460048036036040811015610c0f57600080fd5b50600160a060020a038135811691602001351661246b565b348015610c3357600080fd5b5061036b60048036036020811015610c4a57600080fd5b810190602081018135640100000000811115610c6557600080fd5b820183602082011115610c7757600080fd5b80359060200191846001830284011164010000000083111715610c9957600080fd5b509092509050612499565b348015610cb057600080fd5b5061032160048036036040811015610cc757600080fd5b81359190810190604081016020820135640100000000811115610ce957600080fd5b820183602082011115610cfb57600080fd5b80359060200191846001830284011164010000000083111715610d1d57600080fd5b5090925090506124ca565b7bffffffffffffffffffffffffffffffffffffffffffffffffffffffff191660009081526020819052604090205460ff1690565b60098054604080516020601f6002600019610100600188161502019095169490940493840181900481028201810190925282815260609390929091830182828015610de85780601f10610dbd57610100808354040283529160200191610de8565b820191906000526020600020905b815481529060010190602001808311610dcb57829003601f168201915b505050505090505b90565b6000610dfe8261266c565b1515610e7a576040805160e560020a62461bcd02815260206004820152602c60248201527f4552433732313a20617070726f76656420717565727920666f72206e6f6e657860448201527f697374656e7420746f6b656e0000000000000000000000000000000000000000606482015290519081900360840190fd5b50600090815260026020526040902054600160a060020a031690565b6000610ea18261185e565b9050600160a060020a038381169082161415610f2d576040805160e560020a62461bcd02815260206004820152602160248201527f4552433732313a20617070726f76616c20746f2063757272656e74206f776e6560448201527f7200000000000000000000000000000000000000000000000000000000000000606482015290519081900360840190fd5b33600160a060020a0382161480610f495750610f49813361246b565b1515610fc5576040805160e560020a62461bcd02815260206004820152603860248201527f4552433732313a20617070726f76652063616c6c6572206973206e6f74206f7760448201527f6e6572206e6f7220617070726f76656420666f7220616c6c0000000000000000606482015290519081900360840190fd5b600082815260026020526040808220805473ffffffffffffffffffffffffffffffffffffffff1916600160a060020a0387811691821790925591518593918516917f8c5be1e5ebec7d5bd14f71427d1e84f3dd0314c0f7b2291e5b200ac8c7c3b92591a4505050565b61103733611fa4565b15156110b3576040805160e560020a62461bcd02815260206004820152602481018290527f57686974656c69737441646d696e526f6c653a2063616c6c657220646f65732060448201527f6e6f742068617665207468652057686974656c69737441646d696e20726f6c65606482015290519081900360840190fd5b6110bc81612689565b50565b60075490565b6110ce3361136b565b1515611126576040805160e560020a62461bcd02815260206004820152603a602482015260008051602061370f833981519152604482015260008051602061372f833981519152606482015290519081900360840190fd5b80151561117d576040805160e560020a62461bcd02815260206004820152601060248201527f426173652055524920696e76616c696400000000000000000000000000000000604482015290519081900360640190fd5b611189600d83836135c8565b505050565b61119833826126d1565b1515611214576040805160e560020a62461bcd02815260206004820152603160248201527f4552433732313a207472616e736665722063616c6c6572206973206e6f74206f60448201527f776e6572206e6f7220617070726f766564000000000000000000000000000000606482015290519081900360840190fd5b6111898383836127ae565b61122833611fa4565b15156112a4576040805160e560020a62461bcd02815260206004820152602481018290527f57686974656c69737441646d696e526f6c653a2063616c6c657220646f65732060448201527f6e6f742068617665207468652057686974656c69737441646d696e20726f6c65606482015290519081900360840190fd5b6110bc816127cd565b60006112b8836118f3565b8210611334576040805160e560020a62461bcd02815260206004820152602b60248201527f455243373231456e756d657261626c653a206f776e657220696e646578206f7560448201527f74206f6620626f756e6473000000000000000000000000000000000000000000606482015290519081900360840190fd5b600160a060020a038316600090815260056020526040902080548390811061135857fe5b9060005260206000200154905092915050565b600061137e600c8363ffffffff61281516565b92915050565b6111898383836020604051908101604052806000815250611f0b565b6113a93361136b565b1515611401576040805160e560020a62461bcd02815260206004820152603a602482015260008051602061370f833981519152604482015260008051602061372f833981519152606482015290519081900360840190fd5b61140b33826126d1565b1515611461576040805160e560020a62461bcd02815260206004820181905260248201527f43616c6c6572206973206e6f74206f776e6572206e6f7220617070726f766564604482015290519081900360640190fd5b6110bc816128bd565b611473336128cf565b565b600d805460408051602060026001851615610100026000190190941693909304601f810184900484028201840190925281815292918301828280156114fb5780601f106114d0576101008083540402835291602001916114fb565b820191906000526020600020905b8154815290600101906020018083116114de57829003601f168201915b505050505081565b600061150d6110bf565b8210611589576040805160e560020a62461bcd02815260206004820152602c60248201527f455243373231456e756d657261626c653a20676c6f62616c20696e646578206f60448201527f7574206f6620626f756e64730000000000000000000000000000000000000000606482015290519081900360840190fd5b600780548390811061159757fe5b90600052602060002001549050919050565b60006115b43361136b565b151561160c576040805160e560020a62461bcd02815260206004820152603a602482015260008051602061370f833981519152604482015260008051602061372f833981519152606482015290519081900360840190fd5b60008411611664576040805160e560020a62461bcd02815260206004820152601460248201527f50726f6475637420636f646520696e76616c6964000000000000000000000000604482015290519081900360640190fd5b600082116116bc576040805160e560020a62461bcd02815260206004820152601160248201527f49504653206861736820696e76616c6964000000000000000000000000000000604482015290519081900360640190fd5b6040805160606020601f88018190040282018101835291810186815290918291908890889081908501838280828437600092019190915250505090825250604080516020601f8701819004810282018101909252858152918101919086908690819084018382808284376000920182905250939094525050898152600e6020908152604090912083518051919350611758928492910190613646565b5060208281015180516117719260018501920190613646565b5090505061177f8688612917565b86600f6117f160408051908101604052806001815260200160f860020a602d028152506117ab8b612938565b89898080601f01602080910402602001604051908101604052809392919081815260200183838082843760009201919091525092949392505063ffffffff6129db169050565b6040518082805190602001908083835b602083106118205780518252601f199092019160209182019101611801565b51815160209384036101000a600019018019909216911617905292019485525060405193849003019092209290925550600198975050505050505050565b600081815260016020526040812054600160a060020a031680151561137e576040805160e560020a62461bcd02815260206004820152602960248201527f4552433732313a206f776e657220717565727920666f72206e6f6e657869737460448201527f656e7420746f6b656e0000000000000000000000000000000000000000000000606482015290519081900360840190fd5b6000600160a060020a038216151561197b576040805160e560020a62461bcd02815260206004820152602a60248201527f4552433732313a2062616c616e636520717565727920666f7220746865207a6560448201527f726f206164647265737300000000000000000000000000000000000000000000606482015290519081900360840190fd5b600160a060020a038216600090815260036020526040902061137e90612b58565b6119a533611fa4565b1515611a21576040805160e560020a62461bcd02815260206004820152602481018290527f57686974656c69737441646d696e526f6c653a2063616c6c657220646f65732060448201527f6e6f742068617665207468652057686974656c69737441646d696e20726f6c65606482015290519081900360840190fd5b6110bc81612b5c565b6060611a3582612ba4565b805480602002602001604051908101604052809291908181526020018280548015611a7f57602002820191906000526020600020905b815481526020019060010190808311611a6b575b50505050509050919050565b606081611a978161266c565b1515611adb576040805160e560020a62461bcd02815260206004820152601660248201526000805160206136ef833981519152604482015290519081900360640190fd5b6000600e60008581526020019081526020016000209050611bb560408051908101604052806001815260200160f860020a602d02815250611b1b86612938565b8354604080516020601f60026000196101006001881615020190951694909404938401819004810282018101909252828152918691830182828015611ba15780601f10611b7657610100808354040283529160200191611ba1565b820191906000526020600020905b815481529060010190602001808311611b8457829003601f168201915b50505050506129db9092919063ffffffff16565b949350505050565b606081611bc98161266c565b1515611c0d576040805160e560020a62461bcd02815260206004820152601660248201526000805160206136ef833981519152604482015290519081900360640190fd5b6000838152600e602090815260409182902080548351601f60026000196101006001861615020190931692909204918201849004840281018401909452808452909291839190830182828015611ca45780601f10611c7957610100808354040283529160200191611ca4565b820191906000526020600020905b815481529060010190602001808311611c8757829003601f168201915b505050505092505050919050565b600a8054604080516020601f6002600019610100600188161502019095169490940493840181900481028201810190925282815260609390929091830182828015610de85780601f10610dbd57610100808354040283529160200191610de8565b611d1c3361136b565b1515611d74576040805160e560020a62461bcd02815260206004820152603a602482015260008051602061370f833981519152604482015260008051602061372f833981519152606482015290519081900360840190fd5b82611d7e8161266c565b1515611dc2576040805160e560020a62461bcd02815260206004820152601660248201526000805160206136ef833981519152604482015290519081900360640190fd5b811515611e19576040805160e560020a62461bcd02815260206004820152601560248201527f4e65772049504653206861736820696e76616c69640000000000000000000000604482015290519081900360640190fd5b6000848152600e60205260409020611e359060010184846135c8565b5050505050565b600160a060020a038216331415611e9d576040805160e560020a62461bcd02815260206004820152601960248201527f4552433732313a20617070726f766520746f2063616c6c657200000000000000604482015290519081900360640190fd5b336000818152600460209081526040808320600160a060020a03871680855290835292819020805460ff1916861515908117909155815190815290519293927f17307eab39ab6107e8899845ad3d59bd9653f200f220920489ca2b5937696c31929181900390910190a35050565b611f1684848461118e565b611f2284848484612bbe565b1515611f9e576040805160e560020a62461bcd02815260206004820152603260248201527f4552433732313a207472616e7366657220746f206e6f6e20455243373231526560448201527f63656976657220696d706c656d656e7465720000000000000000000000000000606482015290519081900360840190fd5b50505050565b600061137e600b8363ffffffff61281516565b606081611fc38161266c565b1515612007576040805160e560020a62461bcd02815260206004820152601660248201526000805160206136ef833981519152604482015290519081900360640190fd5b612155600e60008581526020019081526020016000206001018054600181600116156101000203166002900480601f0160208091040260200160405190810160405280929190818152602001828054600181600116156101000203166002900480156120b45780601f10612089576101008083540402835291602001916120b4565b820191906000526020600020905b81548152906001019060200180831161209757829003601f168201915b5050600d8054604080516020601f60026000196101006001881615020190951694909404938401819004810282018101909252828152955091935091508301828280156121425780601f1061211757610100808354040283529160200191612142565b820191906000526020600020905b81548152906001019060200180831161212557829003601f168201915b5050505050612d3a90919063ffffffff16565b9392505050565b60608060608361216b8161266c565b15156121af576040805160e560020a62461bcd02815260206004820152601660248201526000805160206136ef833981519152604482015290519081900360640190fd5b6000858152600e602090815260409182902082518084019093526001835260f860020a602d0291830191909152908190612247906121ec89612938565b8454604080516020601f60026000196101006001881615020190951694909404938401819004810282018101909252828152918791830182828015611ba15780601f10611b7657610100808354040283529160200191611ba1565b6122b7836001018054600181600116156101000203166002900480601f0160208091040260200160405190810160405280929190818152602001828054600181600116156101000203166002900480156120b45780601f10612089576101008083540402835291602001916120b4565b8254604080516020601f6002600019610100600188161502019095169490940493840181900481028201810190925282815291859183018282801561233d5780601f106123125761010080835404028352916020019161233d565b820191906000526020600020905b81548152906001019060200180831161232057829003601f168201915b5050505050925094509450945050509193909250565b611473336127cd565b60606000600f848460405180838380828437808301925050509250505090815260200160405180910390205490506123938161266c565b15156123e9576040805160e560020a62461bcd02815260206004820152601e60248201527f546f6b656e206e6f7420666f756e6420666f722070726f647563742049440000604482015290519081900360640190fd5b611bb5600e60008381526020019081526020016000206001018054600181600116156101000203166002900480601f0160208091040260200160405190810160405280929190818152602001828054600181600116156101000203166002900480156120b45780601f10612089576101008083540402835291602001916120b4565b600160a060020a03918216600090815260046020908152604080832093909416825291909152205460ff1690565b6000600f83836040518083838082843791909101948552505060405192839003602001909220549250505092915050565b6124d33361136b565b151561252b576040805160e560020a62461bcd02815260206004820152603a602482015260008051602061370f833981519152604482015260008051602061372f833981519152606482015290519081900360840190fd5b826125358161266c565b1515612579576040805160e560020a62461bcd02815260206004820152601660248201526000805160206136ef833981519152604482015290519081900360640190fd5b6000848152600e602052604090206125928185856135c8565b5084600f61260560408051908101604052806001815260200160f860020a602d028152506125bf89612938565b88888080601f01602080910402602001604051908101604052809392919081815260200183838082843760009201919091525092949392505063ffffffff6129db169050565b6040518082805190602001908083835b602083106126345780518252601f199092019160209182019101612615565b51815160209384036101000a600019018019909216911617905292019485525060405193849003019092209290925550505050505050565b600090815260016020526040902054600160a060020a0316151590565b61269a600c8263ffffffff612d5716565b604051600160a060020a038216907fee1504a83b6d4a361f4c1dc78ab59bfa30d6a3b6612c403e86bb01ef2984295f90600090a250565b60006126dc8261266c565b1515612758576040805160e560020a62461bcd02815260206004820152602c60248201527f4552433732313a206f70657261746f7220717565727920666f72206e6f6e657860448201527f697374656e7420746f6b656e0000000000000000000000000000000000000000606482015290519081900360840190fd5b60006127638361185e565b905080600160a060020a031684600160a060020a0316148061279e575083600160a060020a031661279384610df3565b600160a060020a0316145b80611bb55750611bb5818561246b565b6127b9838383612ddb565b6127c38382612fab565b611189828261309b565b6127de600c8263ffffffff6130d916565b604051600160a060020a038216907f270d9b30cf5b0793bbfd54c9d5b94aeb49462b8148399000265144a8722da6b690600090a250565b6000600160a060020a038216151561289d576040805160e560020a62461bcd02815260206004820152602260248201527f526f6c65733a206163636f756e7420697320746865207a65726f20616464726560448201527f7373000000000000000000000000000000000000000000000000000000000000606482015290519081900360840190fd5b50600160a060020a03166000908152602091909152604090205460ff1690565b6110bc6128c98261185e565b82613181565b6128e0600b8263ffffffff6130d916565b604051600160a060020a038216907f0a8eb35e5ca14b3d6f28e4abf2f128dbab231a58b56e89beb5d636115001e16590600090a250565b61292182826131ad565b61292b828261309b565b612934816132f3565b5050565b60608160005b811561295257600101600a8204915061293e565b6060816040519080825280601f01601f19166020018201604052801561297f576020820181803883390190505b50905060001982015b85156129d257815160001982019160f860020a6030600a8a0601029184919081106129af57fe5b906020010190600160f860020a031916908160001a905350600a86049550612988565b50949350505050565b60608084905060608490506060849050606081518351855101016040519080825280601f01601f191660200182016040528015612a1f576020820181803883390190505b509050806000805b8651811015612a85578681815181101515612a3e57fe5b90602001015160f860020a900460f860020a028383806001019450815181101515612a6557fe5b906020010190600160f860020a031916908160001a905350600101612a27565b5060005b8551811015612ae7578581815181101515612aa057fe5b90602001015160f860020a900460f860020a028383806001019450815181101515612ac757fe5b906020010190600160f860020a031916908160001a905350600101612a89565b5060005b8451811015612b49578481815181101515612b0257fe5b90602001015160f860020a900460f860020a028383806001019450815181101515612b2957fe5b906020010190600160f860020a031916908160001a905350600101612aeb565b50909998505050505050505050565b5490565b612b6d600b8263ffffffff612d5716565b604051600160a060020a038216907f22380c05984257a1cb900161c713dd71d39e74820f1aea43bd3f1bdd2096129990600090a250565b600160a060020a0316600090815260056020526040902090565b6000612bd284600160a060020a0316613337565b1515612be057506001611bb5565b6040517f150b7a020000000000000000000000000000000000000000000000000000000081523360048201818152600160a060020a03888116602485015260448401879052608060648501908152865160848601528651600095928a169463150b7a029490938c938b938b939260a4019060208501908083838e5b83811015612c73578181015183820152602001612c5b565b50505050905090810190601f168015612ca05780820380516001836020036101000a031916815260200191505b5095505050505050602060405180830381600087803b158015612cc257600080fd5b505af1158015612cd6573d6000803e3d6000fd5b505050506040513d6020811015612cec57600080fd5b50517bffffffffffffffffffffffffffffffffffffffffffffffffffffffff19167f150b7a020000000000000000000000000000000000000000000000000000000014915050949350505050565b6060612155838360206040519081016040528060008152506129db565b612d618282612815565b15612db6576040805160e560020a62461bcd02815260206004820152601f60248201527f526f6c65733a206163636f756e7420616c72656164792068617320726f6c6500604482015290519081900360640190fd5b600160a060020a0316600090815260209190915260409020805460ff19166001179055565b82600160a060020a0316612dee8261185e565b600160a060020a031614612e72576040805160e560020a62461bcd02815260206004820152602960248201527f4552433732313a207472616e73666572206f6620746f6b656e2074686174206960448201527f73206e6f74206f776e0000000000000000000000000000000000000000000000606482015290519081900360840190fd5b600160a060020a0382161515612ef7576040805160e560020a62461bcd028152602060048201526024808201527f4552433732313a207472616e7366657220746f20746865207a65726f2061646460448201527f7265737300000000000000000000000000000000000000000000000000000000606482015290519081900360840190fd5b612f008161333f565b600160a060020a0383166000908152600360205260409020612f2190613387565b600160a060020a0382166000908152600360205260409020612f429061339e565b600081815260016020526040808220805473ffffffffffffffffffffffffffffffffffffffff1916600160a060020a0386811691821790925591518493918716917fddf252ad1be2c89b69c2b068fc378daa952ba7f163c4a11628f55a4df523b3ef91a4505050565b600160a060020a038216600090815260056020526040812054612fd590600163ffffffff6133a716565b60008381526006602052604090205490915080821461307257600160a060020a038416600090815260056020526040812080548490811061301257fe5b90600052602060002001549050806005600087600160a060020a0316600160a060020a031681526020019081526020016000208381548110151561305257fe5b600091825260208083209091019290925591825260069052604090208190555b600160a060020a0384166000908152600560205260409020805490611e359060001983016136b4565b600160a060020a0390911660009081526005602081815260408084208054868652600684529185208290559282526001810183559183529091200155565b6130e38282612815565b151561315f576040805160e560020a62461bcd02815260206004820152602160248201527f526f6c65733a206163636f756e7420646f6573206e6f74206861766520726f6c60448201527f6500000000000000000000000000000000000000000000000000000000000000606482015290519081900360840190fd5b600160a060020a0316600090815260209190915260409020805460ff19169055565b61318b8282613407565b6131958282612fab565b6000818152600660205260408120556129348161352a565b600160a060020a038216151561320d576040805160e560020a62461bcd02815260206004820181905260248201527f4552433732313a206d696e7420746f20746865207a65726f2061646472657373604482015290519081900360640190fd5b6132168161266c565b1561326b576040805160e560020a62461bcd02815260206004820152601c60248201527f4552433732313a20746f6b656e20616c7265616479206d696e74656400000000604482015290519081900360640190fd5b6000818152600160209081526040808320805473ffffffffffffffffffffffffffffffffffffffff1916600160a060020a0387169081179091558352600390915290206132b79061339e565b6040518190600160a060020a038416906000907fddf252ad1be2c89b69c2b068fc378daa952ba7f163c4a11628f55a4df523b3ef908290a45050565b600780546000838152600860205260408120829055600182018355919091527fa66cc928b5edb82af9bd49922954155ab7b0942694bea4ce44661d9a8736c6880155565b6000903b1190565b600081815260026020526040902054600160a060020a0316156110bc576000908152600260205260409020805473ffffffffffffffffffffffffffffffffffffffff19169055565b805461339a90600163ffffffff6133a716565b9055565b80546001019055565b600082821115613401576040805160e560020a62461bcd02815260206004820152601e60248201527f536166654d6174683a207375627472616374696f6e206f766572666c6f770000604482015290519081900360640190fd5b50900390565b81600160a060020a031661341a8261185e565b600160a060020a03161461349e576040805160e560020a62461bcd02815260206004820152602560248201527f4552433732313a206275726e206f6620746f6b656e2074686174206973206e6f60448201527f74206f776e000000000000000000000000000000000000000000000000000000606482015290519081900360840190fd5b6134a78161333f565b600160a060020a03821660009081526003602052604090206134c890613387565b600081815260016020526040808220805473ffffffffffffffffffffffffffffffffffffffff1916905551829190600160a060020a038516907fddf252ad1be2c89b69c2b068fc378daa952ba7f163c4a11628f55a4df523b3ef908390a45050565b60075460009061354190600163ffffffff6133a716565b6000838152600860205260408120546007805493945090928490811061356357fe5b906000526020600020015490508060078381548110151561358057fe5b600091825260208083209091019290925582815260089091526040902082905560078054906135b39060001983016136b4565b50505060009182525060086020526040812055565b828054600181600116156101000203166002900490600052602060002090601f016020900481019282601f106136095782800160ff19823516178555613636565b82800160010185558215613636579182015b8281111561363657823582559160200191906001019061361b565b506136429291506136d4565b5090565b828054600181600116156101000203166002900490600052602060002090601f016020900481019282601f1061368757805160ff1916838001178555613636565b82800160010185558215613636579182015b82811115613636578251825591602001919060010190613699565b815481835581811115611189576000838152602090206111899181019083015b610df091905b8082111561364257600081556001016136da56fe546f6b656e206e6f7420666f756e6420666f722049440000000000000000000057686974656c6973746564526f6c653a2063616c6c657220646f6573206e6f742068617665207468652057686974656c697374656420726f6c65000000000000a165627a7a72305820c6a43a13460d4c4384ce13ac5d230cac93e0f2da2f1aa38a0f1fc7abe8a2c5830029",
  "source": "pragma solidity ^0.5.0;\n\nimport \"@openzeppelin/contracts/math/SafeMath.sol\";\nimport \"@openzeppelin/contracts/access/roles/WhitelistedRole.sol\";\n\nimport \"../libs/Strings.sol\";\nimport \"../interfaces/erc721/CustomERC721Full.sol\";\nimport \"../interfaces/ITokenlandiaTokenCreator.sol\";\n\ncontract Tokenlandia is CustomERC721Full, ITokenlandiaTokenCreator, WhitelistedRole {\n    using SafeMath for uint256;\n    using Strings for string;\n\n    string public tokenBaseURI = \"\";\n\n    struct Token {\n        string productCode;\n        string ipfsHash;\n    }\n\n    mapping(uint256 => Token) internal tokens;\n\n    // Reverse mapping so we can lookup the token from the product ID\n    mapping(string => uint256) internal productIdToTokenId;\n\n    modifier onlyWhenTokenExists(uint256 _tokenId) {\n        require(_exists(_tokenId), \"Token not found for ID\");\n        _;\n    }\n\n    constructor (string memory _tokenBaseURI) public CustomERC721Full(\"TokenLandia NFT\", \"TLN\") {\n        super.addWhitelisted(msg.sender);\n        tokenBaseURI = _tokenBaseURI;\n    }\n\n    /**\n     * Mint a token to a specific recipient\n     * @dev Only callable from whitelisted address\n     * @param _tokenId uint256 id of the token\n     * @param _recipient address of the recipient\n     * @param _productCode string the product code identified - [productCode-tokenId] provides a uniqueness guarantee\n     * @param _ipfsHash string the IPFS hash\n     **/\n    function mintToken(\n        uint256 _tokenId,\n        address _recipient,\n        string calldata _productCode,\n        string calldata _ipfsHash\n    ) external onlyWhitelisted returns (bool success) {\n        require(bytes(_productCode).length > 0, \"Product code invalid\");\n        require(bytes(_ipfsHash).length > 0, \"IPFS hash invalid\");\n\n        // Create Token metadata\n        tokens[_tokenId] = Token({\n            productCode : _productCode,\n            ipfsHash : _ipfsHash\n            });\n\n        // Mint token\n        _mint(_recipient, _tokenId);\n\n        // Create reverse lookup from productId to tokenId\n        productIdToTokenId[_productCode.strConcat(\"-\", Strings.uint2str(_tokenId))] = _tokenId;\n\n        return true;\n    }\n\n    function ipfsUrlForProductId(string calldata productId)\n    external\n    view returns (\n        string memory _ipfsUrl\n    ) {\n        uint256 tokenId = productIdToTokenId[productId];\n        require(_exists(tokenId), \"Token not found for product ID\");\n        return tokenBaseURI.strConcat(tokens[tokenId].ipfsHash);\n    }\n\n    function attributes(uint256 _tokenId)\n    external\n    onlyWhenTokenExists(_tokenId) view returns (\n        string memory _productCode,\n        string memory _productId,\n        string memory _ipfsUrl\n    ) {\n        Token storage token = tokens[_tokenId];\n        return (\n        token.productCode,\n        token.productCode.strConcat(\"-\", Strings.uint2str(_tokenId)),\n        tokenBaseURI.strConcat(token.ipfsHash)\n        );\n    }\n\n    function productCode(uint256 _tokenId)\n    external\n    onlyWhenTokenExists(_tokenId) view returns (string memory _productCode) {\n        Token storage token = tokens[_tokenId];\n        return token.productCode;\n    }\n\n    function productId(uint256 _tokenId)\n    external\n    onlyWhenTokenExists(_tokenId) view returns (string memory _productId) {\n        Token storage token = tokens[_tokenId];\n        return token.productCode.strConcat(\"-\", Strings.uint2str(_tokenId));\n    }\n\n    function tokenIdForProductId(string calldata _productId)\n    external\n    view returns (uint256 _tokenId) {\n        return productIdToTokenId[_productId];\n    }\n\n    function tokenURI(uint256 _tokenId)\n    external\n    onlyWhenTokenExists(_tokenId) view returns (string memory) {\n        return tokenBaseURI.strConcat(tokens[_tokenId].ipfsHash);\n    }\n\n    function tokensOfOwner(address owner)\n    external\n    view returns (uint256[] memory) {\n        return _tokensOfOwner(owner);\n    }\n\n    function updateProductCode(uint256 _tokenId, string calldata _productCode)\n    external\n    onlyWhitelisted onlyWhenTokenExists(_tokenId) {\n        Token storage token = tokens[_tokenId];\n        token.productCode = _productCode;\n\n        productIdToTokenId[_productCode.strConcat(\"-\", Strings.uint2str(_tokenId))] = _tokenId;\n    }\n\n    /**\n     * @dev Burns a specific token.\n     * @dev Only callable from whitelisted address\n     * @param tokenId uint256 id of the token to be burned.\n     */\n    function burn(uint256 tokenId)\n    public\n    onlyWhitelisted {\n        require(_isApprovedOrOwner(msg.sender, tokenId), \"Caller is not owner nor approved\");\n        _burn(tokenId);\n    }\n\n    function updateIpfsHash(uint256 _tokenId, string calldata _newIpfsHash)\n    external\n    onlyWhitelisted onlyWhenTokenExists(_tokenId) {\n        require(bytes(_newIpfsHash).length != 0, \"New IPFS hash invalid\");\n        tokens[_tokenId].ipfsHash = _newIpfsHash;\n    }\n\n    function updateTokenBaseURI(string calldata _newBaseURI)\n    external\n    onlyWhitelisted {\n        require(bytes(_newBaseURI).length != 0, \"Base URI invalid\");\n        tokenBaseURI = _newBaseURI;\n    }\n}\n",
  "sourcePath": "/Users/jamesmorgan/Dropbox/workspace-blockrocket/tokenlandia/tokenlandia-contracts/contracts/token/Tokenlandia.sol",
  "compiler": {
    "name": "solc",
    "version": "0.5.0+commit.1d4f565a.Emscripten.clang"
  },
  "schemaVersion": "3.0.16",
  "updatedAt": "2019-10-11T10:10:50.744Z",
  "devdoc": {
    "methods": {
      "approve(address,uint256)": {
        "details": "Approves another address to transfer the given token ID The zero address indicates there is no approved address. There can only be one approved address per token at a given time. Can only be called by the token owner or an approved operator.",
        "params": {
          "to": "address to be approved for the given token ID",
          "tokenId": "uint256 ID of the token to be approved"
        }
      },
      "balanceOf(address)": {
        "details": "Gets the balance of the specified address.",
        "params": {
          "owner": "address to query the balance of"
        },
        "return": "uint256 representing the amount owned by the passed address"
      },
      "burn(uint256)": {
        "details": "Burns a specific token.Only callable from whitelisted address",
        "params": {
          "tokenId": "uint256 id of the token to be burned."
        }
      },
      "getApproved(uint256)": {
        "details": "Gets the approved address for a token ID, or zero if no address set Reverts if the token ID does not exist.",
        "params": {
          "tokenId": "uint256 ID of the token to query the approval of"
        },
        "return": "address currently approved for the given token ID"
      },
      "isApprovedForAll(address,address)": {
        "details": "Tells whether an operator is approved by a given owner.",
        "params": {
          "operator": "operator address which you want to query the approval of",
          "owner": "owner address which you want to query the approval of"
        },
        "return": "bool whether the given operator is approved by the given owner"
      },
      "mintToken(uint256,address,string,string)": {
        "details": "Only callable from whitelisted address",
        "params": {
          "_ipfsHash": "string the IPFS hash*",
          "_productCode": "string the product code identified - [productCode-tokenId] provides a uniqueness guarantee",
          "_recipient": "address of the recipient",
          "_tokenId": "uint256 id of the token"
        }
      },
      "name()": {
        "details": "Gets the token name.",
        "return": "string representing the token name"
      },
      "ownerOf(uint256)": {
        "details": "Gets the owner of the specified token ID.",
        "params": {
          "tokenId": "uint256 ID of the token to query the owner of"
        },
        "return": "address currently marked as the owner of the given token ID"
      },
      "safeTransferFrom(address,address,uint256)": {
        "details": "Safely transfers the ownership of a given token ID to another address If the target address is a contract, it must implement `onERC721Received`, which is called upon a safe transfer, and return the magic value `bytes4(keccak256(\"onERC721Received(address,address,uint256,bytes)\"))`; otherwise, the transfer is reverted. Requires the msg.sender to be the owner, approved, or operator",
        "params": {
          "from": "current owner of the token",
          "to": "address to receive the ownership of the given token ID",
          "tokenId": "uint256 ID of the token to be transferred"
        }
      },
      "safeTransferFrom(address,address,uint256,bytes)": {
        "details": "Safely transfers the ownership of a given token ID to another address If the target address is a contract, it must implement `onERC721Received`, which is called upon a safe transfer, and return the magic value `bytes4(keccak256(\"onERC721Received(address,address,uint256,bytes)\"))`; otherwise, the transfer is reverted. Requires the msg.sender to be the owner, approved, or operator",
        "params": {
          "_data": "bytes data to send along with a safe transfer check",
          "from": "current owner of the token",
          "to": "address to receive the ownership of the given token ID",
          "tokenId": "uint256 ID of the token to be transferred"
        }
      },
      "setApprovalForAll(address,bool)": {
        "details": "Sets or unsets the approval of a given operator An operator is allowed to transfer all tokens of the sender on their behalf.",
        "params": {
          "approved": "representing the status of the approval to be set",
          "to": "operator address to set the approval"
        }
      },
      "supportsInterface(bytes4)": {
        "details": "See `IERC165.supportsInterface`.     * Time complexity O(1), guaranteed to always use less than 30 000 gas."
      },
      "symbol()": {
        "details": "Gets the token symbol.",
        "return": "string representing the token symbol"
      },
      "tokenByIndex(uint256)": {
        "details": "Gets the token ID at a given index of all the tokens in this contract Reverts if the index is greater or equal to the total number of tokens.",
        "params": {
          "index": "uint256 representing the index to be accessed of the tokens list"
        },
        "return": "uint256 token ID at the given index of the tokens list"
      },
      "tokenOfOwnerByIndex(address,uint256)": {
        "details": "Gets the token ID at a given index of the tokens list of the requested owner.",
        "params": {
          "index": "uint256 representing the index to be accessed of the requested tokens list",
          "owner": "address owning the tokens list to be accessed"
        },
        "return": "uint256 token ID at the given index of the tokens list owned by the requested address"
      },
      "totalSupply()": {
        "details": "Gets the total amount of tokens stored by the contract.",
        "return": "uint256 representing the total amount of tokens"
      },
      "transferFrom(address,address,uint256)": {
        "details": "Transfers the ownership of a given token ID to another address. Usage of this method is discouraged, use `safeTransferFrom` whenever possible. Requires the msg.sender to be the owner, approved, or operator.",
        "params": {
          "from": "current owner of the token",
          "to": "address to receive the ownership of the given token ID",
          "tokenId": "uint256 ID of the token to be transferred"
        }
      }
    }
  },
  "userdoc": {
    "methods": {
      "mintToken(uint256,address,string,string)": {
        "notice": "Mint a token to a specific recipient"
      }
    }
  }
}